S02100004D6174746572446973687761736865724F7665725468726561642E73333760
S3150800600000120020E17F030823E70908530E080859
S315080060101F0B0A0823E7090823E7090823E70908E5
S3150800602023E7090823E7090823E70908F1630008B5
S3150800603023E70908E8550D0891630008D3360A08CE
S31508006040D584030823E7090823E7090823E709088D
S3150800605023E7090823E7090823E7090823E70908C6
S3150800606023E7090823E7090823E709081D95000817
S3150800607023E7090823E7090823E7090823E70908A6
S3150800608023E7090823E7090823E7090823E7090896
S3150800609023E70908818C030823E7090823E7090889
S315080060A023E70908518E03082D8E030823E70908FC
S315080060B023E70908A59F070835AA070821120C082F
S315080060C01D120C08D9A107082D120C0825120C0858
S315080060D009AA070829120C0875AA0708E1AA0708D9
S315080060E023E7090823E7090823E7090823E7090836
S315080060F041080A0823E7090823E7090823E70908E6
S3150800610023E7090823E7090823E7090823E7090815
S3150800611023E7090823E7090823E7090823E7090805
S3150800612023E7090823E7090823E7090823E70908F5
S3150800613023E7090823E7090823E7090823E70908E5
S3150800614023E70908A5BB030823E70908450C0A083D
S315080061506D85070823E70908C3110C08C9110C083F
S3150800616023E7090823E7090823E7090823E70908B5
S31508006170F0B5114A114C124E00F00105E3695F07AC
S3150800618013D40DB9334213D103EA00078F4207D15E
S315080061900B4A1A40002A0CBF00206FF00100F0BD20
S315080061A0013AEBD16FF00200F9E74FF0FF30F6E75E
S315080061B06FF00100F3E700BF8096980000000350D7
S315080061C00200010070B50B4BD96911F480310DD16D
S315080061D001244FF48072084E084DF46020462C6462
S315080061E01A61FFF7C5FF3464EC6070BD6FF00100FB
S315080061F0FBE700BF000003500010035000200350C7
S315080062004FF4803238B50E4B0E4C9A66E56941F666
S31508006210713315400122E3630B4B0021DA60022338
S31508006220606121202361FFF7A3FF10B92120FFF742
S315080062309FFF0122054BDA600DB10023E36338BDE9
S315080062400090005000000350001003500020035037
S3150800625070B5134C6061E3695B071ED40E4656F8A9
S31508006260043B8D18A361AE420BD1042300212120E3
S315080062702361FFF77DFF58B9BDE870402120FFF77D
S3150800628077BF08210846FFF773FF10B1042323617F
S3150800629070BD56F8043BA361E5E74FF0FF30F7E71A
S315080062A0000003502DE9F84315464FF48032184B89
S315080062B089469A6603F51C33DF690646174041F698
S315080062C07132DA63012203F58053DFF84C80DA6015
S315080062D055B9284601220F4BDA601FB10022A3F5F3
S315080062E00053DA63BDE8F88306F5005404EA0804A7
S315080062F0A41BAC4228BF2C46494622463046FFF727
S31508006300A7FF0028E6D12644A1442D1BE0E700BFDD
S31108006310009000500020035000E0FFFF42
S315080063200B4A1168086806C881F30B88022181F3B5
S315080063301488203080F30988BFF36F8F4FF0000070
S3150800634080F31188104700BFAFF30080AFF30080D9
S31508006350A0B20120000000000000000000000000BC
S3150800636007480068006880F3088862B661B6BFF31C
S315080063704F8FBFF36F8F02DF00BF00BFAFF3008000
S3150800638008ED00E00000000000000000000000002A
S31508006390EFF30980EFF30B82734620E9FC0F104AEE
S315080063A0116808604FF0300080F31188BFF34F8FF3
S315080063B0BFF36F8F3FF05CF84FF0000080F3118851
S315080063C0074A11680868B0E8FC0F82F30B8880F367
S315080063D009881847AFF30080AFF30080AFF3008059
S315080063E0A0B201200000000000000000000000002C
S315080063F01EF0040F0CBFEFF30880EFF30980044981
S31508006400084700BFAFF30080AFF30080AFF300800A
S31508006410C9620408000000002DE9F04F00252DEDA3
S31508006420028B044616462F46A8469FED378B90F8F2
S3150800643038309BB00591039300F1080A0295039A38
S315080064402BB29A420DD1029B20460CA9CDE90C37F6
S315080064508DF838800DF048FE1BB0BDEC028BBDE808
S31508006460F08F5AF8043F615D2948049389F01DF8B6
S315080064700368069303798DF81C300BB1836808937B
S3150800648083893168ADF82430D0E90423CDE90A239D
S315080064900B680CA89B699847DDE90AB30193019834
S315080064A0DDE90C23984208BF93459DF8191026D1BB
S315080064B09DF83890894522D1164BC8460C93059B02
S315080064C0154A10930023314611A81192CDE91233CB
S315080064D08DF850308DED0E8B97F002FB316816A8BB
S315080064E00B689B699847049AE36B12680CA906A87F
S315080064F098470CA80DF0D8FC019FCDF808B00135D7
S315080065009DE700BFAFF30080000000000000000018
S31508006510189A002004700C08EC4A0D0800000000C8
S315080065202DE9F04F2DED028B884204460D4617469D
S315080065301E4697B00AD1034601211D202E4A17B0E0
S31508006540BDEC028BBDE8F04F91F052BD9FED288B54
S315080065500DF10C092A2148460DF1140818F0ECFD36
S3150800656099E8030088E80300DFF890A0DFF890B008
S31508006570BDF81400BDF81630834204D117B0BDEC3F
S31508006580028BBDE8F08F18F037FF337881468DF817
S3150800659024408DF825508DF826708DF828300BB1DB
S315080065A073680B9309AB0893CDF81CA007F0A8FAFB
S315080065B000230E938DF840308DF851302A23ADF81C
S315080065C030904FF001090D930CAA6B4607A98DED83
S315080065D0128B8DF850907DF07BFF034620B15A460A
S315080065E049461D2091F004FD404688F038FEBFE775
S315080065F000000000000000001C980C0828990C08F0
S315080066005C980C08000000002DE9F04F2DED028B78
S315080066109FED318B9DB00DF108092A21044604AD82
S31508006620484616461F46DDF8A48018F085FD99E809
S31508006630030085E80300DFF8A8A0DFF8A8B0BDF8D6
S315080066401000BDF81230834204D11DB0BDEC028B98
S31508006650BDE8F08F18F0D0FE289B81461B78CDE95F
S315080066600A6708948DF830301BB1289B5B788DF843
S31508006670313098F800308DF838301BB1D8E902234C
S31508006680CDE9102308AB0793CDF818A007F038FA20
S3150800669000232A228DF858308DF869300223ADF888
S315080066A048904FF00109CDE9132306A96B4612AAB3
S315080066B08DED188B8DF868907DF00AFF034620B1A2
S315080066C05A4649461D2091F093FC284688F0C7FD96
S315080066D0B5E700BFAFF3008000000000000000002F
S315080066E050990C08B3980C082DE9F04F2DED028B44
S315080066F0083085B00F469146DDF8508091F06DFB65
S315080067000446002800F09D806E4600259FED508BBC
S315080067104FF0010B41F2A45A10AB0FCB86E80F00DD
S315080067204D4BC4E902552360C4E90455C4E906552E
S315080067302C336360494B04F1480C0FCB84ED0E8B68
S31508006740C4E90C5584F8205084F840508CE80F00B2
S31508006750434B84F858B0A4F85AA0E565C4E919551E
S31508006760236604F17403C4E91D3304F18003C4E904
S31508006770203304F18C03C4E923333A4B1022C4F8BE
S31508006780A0302946C4E9295584F86C50E567C4F851
S315080067908850C4F89450C4F8AC5004F1B000BCF06A
S315080067A0FCF884F8C0B0A4F8C2A0C4F8C45004F138
S315080067B0C80092F087F84AF6C873C82284ED388B69
S315080067C084ED3A8BC4E93C2304F58473C4E9405547
S315080067D0C4E94233A4F8D450A4F8D850C4F81051E8
S315080067E03B68A3607B68E360BB682361FB68636101
S315080067F03B69A3617B69E3613B7E84F8203033B152
S3150800680004F1240307F11C0207CA83E80700384687
S315080068107CF0ABFAA8B9B9F1000F12D0B8F1000FA5
S315080068200FD003CE3378C4F8309084F84030012373
S3150800683084F80031231DA063E163C4F89880C4F886
S31508006840AC30204605B0BDEC028BBDE8F08F00BF2A
S315080068500000000000000000845F0C08E8530120D7
S31508006860EC4A0D08745F0C082DE9F04F2DED028BEC
S3150800687000240025CBB09946CDE92E450023CDE965
S315080068803045CDE934454FF6FF74DFF898A2064641
S3150800689088461746CDE90C338DF8C8303393CDF8C2
S315080068A0D8A04894A2B3054600F53474A54206D18B
S315080068B00B2420464BB0BDEC028BBDE8F08F284672
S315080068C07DF077FF08B19035F0E79FED8F8BBDF827
S315080068D05C318DF8C880ADF820318D4B4FF4C87106
S315080068E00E93002309A8CDE909330F93CDF870A0BC
S315080068F00B9385F06FF8099C14BB0B240BA87CF04E
S315080069002AF90AA87CF027F909A87CF024F9D0E727
S315080069108AF076FC044608B9AC24CAE706F534754D
S3150800692028467BF0E0F8B4F882308DF8C880ADF8D8
S31508006930203121460CA894ED028B8AF0E3FBCCE7C4
S315080069404FF4C8710AA885F045F8DDF828A0BAF111
S31508006950000FD2D04FF4C8710BA885F03BF80B9AFC
S31508006960002ACAD04FF4C8734146CDE913323046DF
S3150800697010AA1094CDE9113A15938AF0A1FC0446A1
S315080069800028BBD14146304612AA8AF07BFC044651
S315080069900028B3D14146304614AA8AF050FC044672
S315080069A00028ABD110A916A885F00AF812A918A8CC
S315080069B085F006F814A91AA885F002F836AB0793ED
S315080069C030AB05930DF1B80A34ABCDE903A30DF14D
S315080069D0700B0EAB8DED008BCDF818B002931AAA8A
S315080069E018A916A81CF032FC0446002886D10BA864
S315080069F07CF0B1F80AA87CF0AEF809A87CF0ABF8F0
S31508006A00B9F1000F13D1D6F8640300285ED00368E5
S31508006A109B6898470346D6F86403002B4ED0036854
S31508006A205A4641465B699847044688B141E7D9F812
S31508006A30003048465B69984759468AF008FF08B906
S31508006A40C52436E79DF85831CDF8CC908DF822311B
S31508006A509DF860315146B3FA83F328465B098DF8F1
S31508006A6023318AF078FE044600287FF422AF2846B0
S31508006A700CA98AF076FB06F55D7495F881303FB36C
S31508006A8002211120234A91F0B3FAD5E900122B69A5
S31508006A90CDE9012100936B69022111201E4A91F06C
S31508006AA0A7FA20460F991EF08FFB034630BB96F8CF
S31508006AB08233013386F882330024FAE603684146B6
S31508006AC0DB6898470028C3D11024F2E60324F0E6D1
S31508006AD0D5E900121120CDE9002102210F4A91F0D3
S31508006AE087FA20460F991EF06FFB03460028E3D06D
S31508006AF0012111200A4A91F07BFADDE701211120D4
S31508006B00074A91F075FAD2E700000000000000007D
S31508006B1070D50C089CD40C08BCD40C08FFD40C08FF
S31508006B2034D50C086C1C0D082DE9F0478AB00DF118
S31508006B300D0301931523064600934FF48072002334
S31508006B4008460C4690F055F8E8B996F892300122B6
S31508006B500093204600238FF0D3FFA0B996F8933010
S31508006B6002220093204600238FF0CAFF58B90DF180
S31508006B700E0301931623032200932046002390F068
S31508006B8038F8054610B10AB0BDE8F0874FF010098D
S31508006B9006F1C8070DF11808102200214046BBF07F
S31508006BA0FCFE0DF10F03019315234FF48072009339
S31508006BB02046002390F01DF80028E4D196F893208B
S31508006BC0EBB29A4251D917ED0C7BC44637F828AC7C
S31508006BD0A7F12603A7F1160E624618685968083306
S31508006BE003C273459446F7D18DED007B042200233A
S31508006BF020468FF060FF0028C5D1052200232046D5
S31508006C00CDF800A08FF07CFF0028BCD1404649464D
S31508006C1006228DE8030000232046CDE9048990F07A
S31508006C20BBF80028AFD120469DF90F1090F016F852
S31508006C30013530370028A6D1032DADD120469DF960
S31508006C400E1090F00BF800289DD1B6F88A3007226E
S31508006C500093204600238FF053FF002893D1204647
S31508006C609DF90D108FF0FAFF8DE782469FED027BA6
S31508006C70BAE700BFAFF30080000000000000000084
S31508006C80054B18680368D96901A3D3E900230847A7
S31508006C9000E0373B015D03008C290220000000005C
S31508006CA02DE9F043022089B03BF002F900B9FEE76E
S31508006CB05F4E336803B9FEE710203BF0F9F83368F6
S31508006CC05C4C9B880DF10B018DF80B300123206875
S31508006CD01A46B9F003FD9DF80B203168023A0023E5
S31508006CE0096892B22068B9F0F9FC534B05AF93E8EE
S31508006CF0070087E8070033681B681D7815F020052C
S31508006D001FD02068B9F025FB002867D02068B9F0A5
S31508006D1020FB74F013FC02460B4641A1D1E90001A1
S31508006D2074F0B0FD80460798894674F007FC024661
S31508006D300B464046494674F0C5FA74F013FF012520
S31508006D4007902068B9F021FB9DF80B30002848D041
S31508006D50981DC00074F002FC33A3D3E9002374F035
S31508006D6067FC804620688946B9F00FFB74F0E6FB9D
S31508006D7002460B464046494674F084FD804607980D
S31508006D80894674F0DBFB02460B464046494674F0DA
S31508006D9099FA74F0E7FE32680790536973BB1020BE
S31508006DA03BF086F810B3079B326803F5FA73117E39
S31508006DB00793224B997022490978D97091790097DF
S31508006DC02A462068B9F035F828B14FF480503BF0D0
S31508006DD05DF99CF082FA09B0BDE8F0830798C030E7
S31508006DE0ADE70798063300EB4310D4E731683B4616
S31508006DF02A4689792068B9F006F8E5E711690B444F
S31508006E00A03B03930023ADF810300E4B9179009305
S31508006E1001972A46206803ABB9F016F8D4E700BFF5
S31508006E200000000060E366410000000080842E41F7
S31508006E3030AC01208CAB01208C750D08002A02208D
S31508006E40A0300220F4290220F7B501203BF030F8E3
S31508006E500446002840F0B5805D4D5E4B5E4EC5E9A0
S31508006E60003005F11003AB6041F60B233060B380A8
S31508006E703CF096F8594B1B6ADB0700D4FEE721461F
S31508006E8028466AF049F8044600B9FEE76BF0DAFBD3
S31508006E9000B1FEE7204652496AF020FF00B1FEE73E
S31508006EA002212046B9F028FA00B1FEE720464D49EE
S31508006EB06BF0B6F900B1FEE701212046B9F0A3FD53
S31508006EC000B1FEE701212046B9F0B3FD074600B13F
S31508006ED0FEE701463C224448BBF05FFD80233A4664
S31508006EE0204605F11401B9F00FFC802800D0FEE712
S31508006EF03E4D0120B8F082FF33A3D3E900232C606E
S31508006F002046CDE900234FF0FF324FF0FF33B9F0AA
S31508006F10A7FA014600B1FEE72F483BF00DF801211C
S31508006F2008463AF0F5FF01212868B9F038F9044611
S31508006F3000B1FEE72E4B2F4A988018602E4B1A6038
S31508006F40FF2298802D4B83F820202D4A98801A60BE
S31508006F502C4A6FF06300DA6044F0B8FB33790B2BE8
S31508006F6011D873790A2B0ED9274B1E6034F068FDA9
S31508006F7020463CF007F8082228681146B9F08AFA34
S31508006F80044608B1FEE7FEE73BF0F4FF1F4B10216D
S31508006F901F481C709CF00DFB00B9FEE71D491C48F4
S31508006FA09CF019FB00B9FEE710218C201A4A99F0CB
S31508006FB051FD00B1FEE7194803B0BDE8F040A2F064
S31508006FC02DB803B0F0BD00BF0BE020FFE2030000C0
S31508006FD09CAB0120D120040894AB01200080E00F6F
S31508006FE00700110058750D084CAB01208CAB012029
S31508006FF018D60020A91D0220F0D50020C8D50020EB
S31508007000291D0220B8D5002090AB01202B1E022096
S3150800701044AC0120FF130A0834AC01209A6B0C0813
S315080070202DE9F3411E461C4B044683424FF00003EC
S315080070308B4115460AD216A3D3E9002374F002FE43
S315080070401649144602462846A4F072FC144B4EF61E
S315080070506021B4FBF3F203FB1244B4FBF1F34FF4E3
S315080070607A7801FB1344B4FBF8F728460D490097D4
S31508007070A4F05EFC46B1284608FB17420A4902B04E
S31508007080BDE8F041A4F054BC02B0BDE8F08100BFF1
S31508007090005C260500000000FF5B26051CB60D08EF
S315080070A080EE3600ABD80C0822B60D0800000000AA
S315080070B04FF4FA7230A1D1E90001274B2DE970434C
S315080070C000245A82322201254FF000084FF00009A9
S315080070D0224EC3E90201DA82204632462049C3E934
S315080070E000891D741D751C7683F8204083F830408E
S315080070F083F84040BAF0F3F81A4832461A49057040
S31508007100057105730574057680F8205080F83050AF
S3150800711080F83850154DC0E90A89C0E9108984609D
S315080071204461BAF0DCF812483246294604720474FF
S31508007130047680F82840BAF0D2F80E48324604722F
S315080071400474047680F828402946BDE87043BAF0EE
S31508007150C6B800BFAFF30080C82401205826022015
S31508007160A3980B08802401209F980B08A1980B0868
S3150800717048240120102401200080C6A47E8D030027
S315080071802DE9F84FDCA1D1E90001C74A00242DED0D
S31508007190048B012541F288394FF4FA6840F6B8376E
S315080071A04FF0640B4FF4FA7A4FF47A73C2E9000190
S315080071B0B1A1D1E90001C2E90201B1A1D1E90001F9
S315080071C0C2E91401B0A1D1E90001C2E91601002102
S315080071D0B64EB748A2F86230C2E92801ACA1D1E997
S315080071E000011574C2E92A01A2F812901575A2F8D1
S315080071F016801576578382F8204082F8304082F848
S31508007200404082F8605082F86450A2F866B082F86E
S315080072106850A2F86AA082F8704082F8804082F826
S31508007220904082F8B050A2F8B29082F8B450A2F812
S31508007230B68082F8B850A2F8BA70204682F8C040E4
S315080072409C4982F8D04082F8E0403246BAF047F8C6
S315080072504FF0FF31984A99489FED8F8BC2E902019A
S315080072604FF0FF3196489FED8E9BC2E9140141F21B
S31508007270873000214FF47A73C2E9160141F288304B
S315080072800021A2F86230C2E9280182ED009B82ED56
S315080072902A8B1574A2F812901575A2F81680157621
S315080072A0578382F8204082F8304082F8404082F8BE
S315080072B0605082F86450A2F866B082F86850A2F866
S315080072C06AA082F8704082F8804082F8904082F87E
S315080072D0B050A2F8B29082F8B450A2F8B68082F8FC
S315080072E0B850A2F8BA7082F8C04082F8D04020465A
S315080072F082F8E04073493246B9F0F1FF4FF0FF31AA
S31508007300714A72484FF47A73C2E900014FF0FF31AF
S315080073106F48A2F86230C2E9140100216D4882ED77
S31508007320029BC2E9160100216B4882ED288BC2E94F
S315080073302A011574A2F812901575A2F8168015760A
S31508007340578382F8204082F8304082F8404082F81D
S31508007350605082F86450A2F866B082F86850A2F8C5
S315080073606AA082F8704082F8804082F8904082F8DD
S31508007370B050A2F8B29082F8B450A2F8B68082F85B
S31508007380B850A2F8BA7082F8C04082F8D0402046B9
S3150800739082F8E04051493246B9F0A1FF00200021A9
S315080073A04FF496784FF000094D4B0222C3E90201CB
S315080073B0C3E92001C3E93E014FF47A700021C3E90D
S315080073C004894FF4FA784FF00009C3E94001A3F89D
S315080073D0F020204632464349C3E922891C801C76A0
S315080073E083F8204083F8284083F8304083F83840F3
S315080073F083F8484083F8584083F86840A3F87850E3
S3150800740083F8904083F8984083F8A04083F8A84012
S3150800741083F8B04083F8C04083F8D04083F8E04052
S3150800742083F8084183F8104183F8184183F820410E
S3150800743083F8284183F8384183F8484183F858414E
S31508007440B9F04DFF284B32462046284983ED048B78
S315080074501D701D72B9F043FF254B324683ED048B30
S315080074601D701D722046BDEC048BBDE8F84F2149FE
S31508007470B9F035BFAFF30080806967FFFFFFFFFFF4
S31508007480816967FFFFFFFFFF7F96980000000000F5
S3150800749080F0FA0200000000A0860100000000004B
S315080074A06079FEFFFFFFFFFF902801205826022083
S315080074B08096980017990B08A027012078ECFFFF03
S315080074C079ECFFFF3B990B08B0260120E05EF8FF38
S315080074D06179FEFF9F86010020A107003D990B08F0
S315080074E0482501203F990B083025012027990B08CC
S315080074F01825012039990B08800F05FDFFFFFFFFAE
S31508007500002370B5404C05468AB0E36318B100887D
S31508007510236062F049FD3D48B8F0DDFE3C4E3D4B28
S31508007520304633603C4B73605EF090F9002130467C
S3150800753069F0F2FC32A3D3E90023A062C4E906236A
S31508007540B5F06CFBD4E9062319431043C4E90601D8
S31508007550CDE900014FF0FF334FF0FF32A06AB8F0D3
S315080075607FFF02224FF0FF31A06AB8F093FF012097
S3150800757062F09AFA4FF4007300222849A06AB9F01B
S31508007580C3F8B0F5007F38D100239422CDE907333C
S3150800759009933C23CDE9033205939623A06A03A9F0
S315080075A006936AF0BFF835B3287C62F07DFE05467F
S315080075B0F0B9A06AB9F082FA62F024FE62F056FACF
S315080075C020B14FF48070002160F0BEFB62F05EFAD5
S315080075D020B14FF40060002160F0B6FBB5F0D8FB8F
S315080075E00120B8F00BFC0E4A0E49A06AB5F00AFB5A
S315080075F028460AB070BDFF20D7E70725F8E700BF81
S315080076000DD5015520000000A0290120690345EC8D
S31508007610C0BC01202D990608D0BC0120C0BA0120A3
S31508007620ADCB0B08EDCB0B080348044B834202D0C5
S31508007630034B03B118477047BC310220BC31022006
S3150800764000000000064B0749C91A891048BF0131D6
S31508007650491003D0044B0BB101481847704700BFC7
S31508007660BC310220BC3102200000000010B5064CD7
S31508007670237843B9FFF7D8FF044B13B10448AFF397
S3150800768000800123237010BD98C901200000000066
S3150800769000120E0808B5054B1BB105490548AFF39E
S315080076A00080BDE80840FFF7CDBF00BF000000001E
S315080076B0202F012000120E08A3F5803A704700BF5C
S315080076C0174B002B08BF134B9D46FFF7F5FF00210C
S315080076D08B460F461348144A121ABBF05EF90E4B36
S315080076E0002B00D098470D4B002B00D09847002060
S315080076F0002104000D000D48002802D00C48BAF0FD
S31508007700BCFE76F099F920002900B2F0FFFC75F06E
S3150800771079F900BF00000800000000000000000022
S3150800772000120020001200209C2402207B240C0852
S315080077300000000000220121014899F044BF00BF63
S315080077405C26022008B5044897F009F9BDE8084008
S31508007750024897F004B900BF502F0C08382F0C08C0
S3150800776008B5044897F029F9BDE80840024897F09B
S3150800777024B900BF802F0C08682F0C0818B1034BDA
S315080077801860002070472520704700BF382F012059
S3150800779010B5054C0549206831F09AFF2068BDE808
S315080077A01040FFF7EBBF00BFA02702207426022077
S315080077B070B58B680646012B0D4614468CB025D04D
S315080077C0022B33D0002B3ED119461C2205A8BBF04C
S315080077D0E4F8214605A876F03DFF044638B929465F
S315080077E0304605AA0BF04CFF00283ED10446294630
S315080077F030460023852205F087FA234602211D20FC
S315080078001B4A0CB0BDE8704090F0F2BB002311464D
S3150800781005A8ADF8143076F056FF04460028E6D1E0
S315080078202946304605AA0BF0B7FFDDE7114605A83D
S3150800783076F04BFF04460028D9D12946304605AADA
S315080078400CF012F8D0E70023812205F05DFAD5E99D
S31508007850012391B2120C01929AB20291009201216F
S315080078601D20044A1B0C90F0C3FB0CB070BD00BF72
S31508007870CC2F0C08982F0C0870B58B6806460C465A
S3150800788088B0F3B9114604A8ADF810308DF8143055
S3150800789077F03CF9054628B92146304604AA82F015
S315080078A0D9F900BB214630460023852205F02CFA7B
S315080078B02B4602211D200D4A08B0BDE8704090F005
S315080078C097BB0023812205F01FFAD4E9012391B260
S315080078D0120C01929AB20291009201211D20044ACB
S315080078E01B0C90F085FB08B070BD00BFCC2F0C08B0
S315080078F0982F0C0870B58B680646022B0D46144661
S315080079008AB026D0042B36D0002B41D10022ADF800
S3150800791010300023214604A8CDE9062376F0F8FDA9
S31508007920044638B92946304604AA0DF0AFF90028AE
S3150800793040D10446294630460023852205F0E4F95D
S31508007940234602211D201C4A0AB0BDE8704090F06B
S315080079504FBB1822002104A8BBF01FF8214604A833
S3150800796077F0E8FD04460028E4D12946304604AA03
S315080079700DF0BEFADBE7114604A876F0F2FD0446E0
S315080079800028D7D12946304604AA0DF0F7F9CEE7E4
S315080079900023812205F0B8F9D5E9012391B2120C2A
S315080079A001929AB20291009201211D20034A1B0CF2
S315080079B090F01EFB0AB070BDCC2F0C08982F0C084F
S315080079C070B58B6806460D4688B0ABB1012B36D02C
S315080079D00023812205F098F9D5E9012391B2120C0A
S315080079E001929AB20291009201211D201A4A1B0C9B
S315080079F090F0FEFA08B070BD00200021CDE906011E
S31508007A00114604A8CDE9043376F0AEFD044638B92C
S31508007A102946304604AA82F0D4FE0028EAD1044654
S31508007A20294630460023852205F06EF923460221B1
S31508007A301D200A4A08B0BDE8704090F0D9BA114630
S31508007A4004A876F0BAFD04460028E9D1294630464E
S31508007A5004AA0DF095FDE0E7982F0C08CC2F0C082A
S31508007A6070B50D46AB68064611469CB0042B5BD82C
S31508007A70DFE803F003305A3F4E00002304A8ADF8B0
S31508007A8010308DF812308DF814308DF820308DF8BE
S31508007A9030308DF840308DF850308DF8603078F001
S31508007AA068FC044638B92946304604AA0DF074FE27
S31508007AB000284CD10446294630460023852205F085
S31508007AC023F9234602211D20224A1CB0BDE8704036
S31508007AD090F08EBA002304A8ADF8103076F077FE41
S31508007AE004460028E7D12946304604AA0EF030F9A4
S31508007AF0DEE7002304A8ADF8103076F06AFE0446E7
S31508007B000028D8D12946304604AA0DF02FFFCFE722
S31508007B1004A876F060FE04460028CCD129463046F3
S31508007B2004AA0EF06FF9C3E700238122294605F05F
S31508007B30EBF8D5E9012391B2120C01929AB202919F
S31508007B40009201211D20044A1B0C90F051FA1CB02A
S31508007B5070BD00BFCC2F0C08982F0C0870B58B6829
S31508007B6006460D4686B0ABB1402B32D000238122A3
S31508007B7005F0CAF8D5E9012391B2120C01929AB21E
S31508007B800291009201211D201A4A1B0C90F030FA2E
S31508007B9006B070BD114605A8ADF8143076F075FA32
S31508007BA0044638B92946304605AA83F087F80028DE
S31508007BB0EED10446294630460023852205F0A4F86E
S31508007BC0234602211D200C4A06B0BDE8704090F0FD
S31508007BD00FBA0023114605A8ADF8143076F077FAE7
S31508007BE004460028E6D12946304605AA0EF0D4F9FF
S31508007BF0DDE700BF982F0C08CC2F0C0870B58B68F2
S31508007C0006460C468CB033BB00200021CDE90401A2
S31508007C10114604A8ADF818308DF81A308DF81C30C6
S31508007C20ADF8283077F068FA054628B92146304677
S31508007C3004AA12F06DFF00BB2146304600238522B8
S31508007C4005F062F82B4602211D200D4A0CB0BDE84E
S31508007C50704090F0CDB90023812205F055F8D4E99B
S31508007C60012391B2120C01929AB20291009201215B
S31508007C701D20044A1B0C90F0BBF90CB070BD00BF68
S31508007C80CC2F0C08982F0C082DE970430D46AB68CD
S31508007C900646114690B00B2B00F2A280DFE803F0EF
S31508007CA006A026A035A04661A0728190002304A8EC
S31508007CB0CDE9043376F00CFD044640B92946304632
S31508007CC004AA0FF0A5FF002840F09D800446294627
S31508007CD030460023852205F017F8234602211D2089
S31508007CE04A4A10B0BDE8704390F082B9002304A850
S31508007CF08DF8103076F0EEFC04460028E7D12946C8
S31508007D00304604AA0FF022FFDDE7002304A8CDE9D8
S31508007D1004338DF8183077F069F904460028D6D16F
S31508007D202946304604AA10F053F8CCE700234FF052
S31508007D3000084FF0000904A8CDE90433CDE909335A
S31508007D40CDE90C898DF81830ADF8383077F086FA19
S31508007D5004460028BBD12946304604AA0FF00EFC7B
S31508007D60B1E7002304A8CDE904338DF8183077F07D
S31508007D7073FA04460028AAD12946304604AA0FF009
S31508007D804FFBA0E7002304A8CDE9043376F0CCFC2A
S31508007D90044600289BD12946304604AA0FF0DEFD8A
S31508007DA091E7002304A88DF8103076F0DFFC04462E
S31508007DB000288CD12946304604AA0FF051FE82E7E6
S31508007DC0002304A8CDE9043376F0D2FC0446002843
S31508007DD07FF47DAF2946304604AA0FF0FFF972E713
S31508007DE000238122294604F08FFFD5E9012391B2A9
S31508007DF0120C01929AB20291009201211D20044AA6
S31508007E001B0C90F0F5F810B0BDE87083CC2F0C0869
S31508007E10982F0C0870B58B6806460C4686B0D3B901
S31508007E20114605A876F010FC054628B921463046C5
S31508007E3005AA85F07EFC00BB214630460023852234
S31508007E4004F062FF2B4602211D200D4A06B0BDE84C
S31508007E50704090F0CDB80023812204F055FFD4E994
S31508007E60012391B2120C01929AB202910092012159
S31508007E701D20044A1B0C90F0BBF806B070BD00BF6D
S31508007E80CC2F0C08982F0C0870B58B6806460C4644
S31508007E9086B0D3B9114605A876F0D9FB054628B9A8
S31508007EA02146304605AA13F021FC00BB2146304680
S31508007EB00023852204F028FF2B4602211D200D4AA7
S31508007EC006B0BDE8704090F093B80023812204F014
S31508007ED01BFFD4E9012391B2120C01929AB20291C6
S31508007EE0009201211D20044A1B0C90F081F806B06F
S31508007EF070BD00BFCC2F0C08982F0C0837B5436807
S31508007F000446032B15463AD0A3F12A02152A5ED851
S31508007F10152A5CD8DFE802F03B5B5B5B5B5B1B5BAF
S31508007F2013234B535B5B5B5B5B5B0B5B432B0A4629
S31508007F302846214603B0BDE83040FFF739BC0A465B
S31508007F402846214603B0BDE83040FFF795BC0A46EF
S31508007F502846214603B0BDE83040FFF7CBBC0A46A9
S31508007F602846214603B0BDE83040FFF729BD0A463A
S31508007F702846214603B0BDE83040FFF771BD0A46E2
S31508007F800146284603B0BDE83040FFF7E7BD0A467C
S31508007F902846214603B0BDE83040FFF72FBE0A4603
S31508007FA02846214603B0BDE83040FFF76DBE0A46B5
S31508007FB02846214603B0BDE83040FFF72BBF0A46E6
S31508007FC02846214603B0BDE83040FFF75DBF9AB2A8
S31508007FD0009201211D20064A1B0C90F009F8002387
S31508007FE0C3222146284603B0BDE8304004F08CBEC3
S31508007FF0F52F0C0840F20113984219D0B0F5817F8D
S3150800800005D23C280CD099280FD00020704740F2A2
S315080080100E53984221D0134B9842F6D1122918E0F4
S3150800802002298CBF002001207047481E0628F8E761
S315080080302929EAD8192903D8012909D8012070471E
S315080080404FF20913A1F11A00C34003F0010070476B
S31508008050032914BF0020012070470029EED0881E8E
S315080080600128DEE705FCF1FF024B1B780BB1002364
S31508008070037370479BC9012002211D20014A8FF016
S31508008080B7BF00BF11300C0802211D20014A8FF02E
S31508008090AFBF00BF21300C0808B5044A02211D20D5
S315080080A08FF0A6FFFF22024B1A7008BD30300C086D
S315080080B09A30022070B5294D037D04462B70837DC6
S315080080C023B103212120264A8FF092FF2B78FE2B1D
S315080080D022D0FF2B30D00B2B37D80B2B35D8DFE827
S315080080E003F006120634343434343434341290F03F
S315080080F096FC036841F288315D692346194AAC4605
S31508008100BDE87040604790F08AFC036842F210713F
S315080081105D69144A2346F2E790F081FC036822461B
S315080081205B6A1049984790F07AFC03684FF47A71B5
S315080081305D690C4A2346E2E790F071FC0368224623
S31508008140BDE870405B6A07491847FF232B70022178
S31508008150BDE870401D20044A8FF04ABF9A300220BD
S315080081604A300C08998000087D300C0848F2020253
S3150800817010B5038893421BD8B3F5004F1FD990F961
S315080081800830012B03D090F90930012B17D10221B1
S315080081900B4A21208FF02CFF90F041FC036840F633
S315080081A0B8315C69074AA446BDE810400023604719
S315080081B048F20402934202D1027A034B1A7010BDA8
S315080081C092300C08BB0C08089BC9012008B522F0A0
S315080081D0CDFF22F0FDFF0A4827F00CFA084827F0E1
S315080081E003FA00224FF46171064886F047FC30B165
S315080081F0BDE8084001212120034A8FF0F9BE08BDD9
S31508008200A8BC002058910020BA300C0810B50A20E6
S315080082100C46104A10213BF05FFF0F4B186040B91F
S31508008220212001210D4A8FF0E3FE40F2017078F01B
S3150800823023FE20460A4A08493BF0D4FB40B92120D0
S315080082400121084A8FF0D4FE40F2027078F014FE3D
S31508008250002010BD98330C08D4300120E8300C08F3
S3150800826074330C080B310C08F7B5334BDB7D2BB197
S31508008270FA221146314878F04BFD4EE0304B1B7818
S31508008280FF2B3DD00B2B48D8DFE803F006090C4737
S31508008290474747474747471132223221EAE74FF413
S315080082A07A72E6E74FF42F724FF49671E2E7254E9D
S315080082B06846337840F2B634002B234B08BF4FF498
S315080082C02F75196818BF32250B6808BF4FF49674C6
S315080082D01B699847DDE900721C49D1E9003013F59E
S315080082E07A7340F100009F4272EB000015D3337891
S315080082F0C1E9007283F00103224629463370B9E7C3
S31508008300134B1B7883B1134B1B786BB1124B1B783D
S3150800831033B10121094800F0A7FA012003B0F0BDE6
S31508008320322240F2B631A5E70C4B1B780BB164221A
S315080083309FE740F2B632B0E7B02F012008120020BE
S315080083409A30022099C901208C29022000120020A7
S315080083509BC901203EDA01203DDA01203CDA0120E2
S3150800836010B5084B084C1870204691F06EFE074B66
S315080083701870204691F0C1FE054B1870BDE81040F4
S31508008380FFF772BF9BC90120A8BC00203EDA012076
S315080083903DDA012008B5144891F0AEFDA0B11348A6
S315080083A091F053FE124B1870104891F0A6FE114B2F
S315080083B01870114825F012FB003818BF01200F4B22
S315080083C01870094891F0A1FD0D4B1B780BB9FFF702
S315080083D04BFF0C4800F022FA0B4B186818B1BDE8A1
S315080083E0084000F01BBA08BD889F0020A8BC0020E2
S315080083F03EDA01203DDA01209C6601203CDA0120A4
S315080084009AC9012008120020AC2F012008B5094B93
S3150800841018683BF073FC01300AD121200121064A75
S315080084208FF0E6FDBDE8084040F2067078F024BDFE
S3150800843008BD00BFDC30012025310C084FF47A71E5
S3150800844008B50A4B8002B0FBF1F118683BF030FC26
S3150800845050B121200121064A8FF0CAFDBDE8084027
S3150800846040F2057078F008BD08BD00BFDC30012079
S315080084703D310C0810B540F6B83302210B4A2120CD
S315080084808FF0B6FD40F6B830FFF7D8FF0122084C4A
S31508008490084B204600211A7000F0E6F92046BDE890
S315080084A010404FF4FA7178F037BC00BF56310C080B
S315080084B0081200209AC9012008B5FFF7A7FF064B46
S315080084C01A7842B100221A700221BDE8084021201C
S315080084D0024A8FF08DBD08BD9AC9012095310C0856
S315080084E008B5094B0A2118683BF0E2FB50B1212078
S315080084F00121064A8FF07CFDBDE8084040F2057070
S3150800850078F0BABC08BD00BFD8300120B5310C08D8
S3150800851008B5094B0146186858B1002318223BF0E4
S3150800852021FE40B1054A0121BDE8084021208FF00F
S315080085305FBD034AF7E708BDD4300120CD310C08EA
S31508008540FA310C081FB50123ADF80030044B019031
S3150800855068460393FFF7DCFF05B05DF804FB00BF30
S3150800856091850008CB68084603B1184702212120E7
S31508008570014A8FF03DBD00BF1B320C08002202499C
S31508008580024826F0F9B800BFC1870008889F002076
S315080085900388012B06D1044B1B780BB9FFF76ABF7A
S315080085A0FFF7ECBF704700BF9AC9012000220249B5
S315080085B0024826F0E1B800BFCD810008889F002058
S315080085C010B5A4B003AB0193812301AC029301F06B
S315080085D031FA214601F044FF28B994E8030015F062
S315080085E0C1F924B010BD01212120024A8FF000FDF7
S315080085F0F7E700BF4B320C0800230246194610B5B0
S31508008600044625483BF00EFB244B186040B9212050
S315080086100121234A8FF0ECFC40F2047078F02CFC20
S315080086200023224601211F483BF0FCFA1E4B186026
S3150800863040B9212001211D4A8FF0DAFC40F204706E
S3150800864078F01AFC02212120194B1A4A8FF0D0FC27
S31508008650194A0221012321208FF0CAFC21F0F4FED9
S3150800866003685B6F98470120FFF7AAFF00F0C2F87E
S315080086700021124878F054FB00221149114891F064
S31508008680FCFB114891F02BFD104B1149187011484D
S3150800869088F057FE10BD00BF45850008DC30012074
S315080086A063320C08E90C0808D83001207D320C0822
S315080086B0266C0C0897320C08BB320C0808120020EE
S315080086C06D810008889F0020A8BC00209BC9012056
S315080086D0A02F0120C88B002010B50379012B05D1E6
S315080086E0BDE8104040F6B830FFF7A8BE134B1C781B
S315080086F01CB1BDE81040FFF7DFBEFFF787FE204636
S31508008700FFF75EFF0E4B1C78A4B90E4891F0EFFBFD
S3150800871022464FF461710C4886F0B0F904460948C0
S3150800872091F0F3FB4CB10121084A2120BDE8104025
S315080087308FF05EBC0221064AF7E710BD9AC90120F0
S315080087409BC90120889F002058910020BA300C0848
S31508008750D8320C087FB5114B002401930223104E22
S31508008760104D00930121104B3046CDE902440F4AC3
S315080087700DF04CFC2A4630460D49B8F0B0FD2A46A5
S315080087800C480D4B0D4903603033C0E90244436081
S3150800879004B0BDE87040B8F0A2BD00BFB5800008BF
S315080087A0B02F012058260220898000087980000809
S315080087B0416001089C2F012020330C08B50C0808DD
S315080087C010B50121094827F047F920B101F032F91F
S315080087D0012178F084FD064825F01CFF21F034FEBF
S315080087E0BDE8104003681B6F184700BF18690120D1
S315080087F0889F0020014891F06BBE00BF18690120D0
S3150800880010B50446017C044827F05EF9637C83F0C2
S315080088100103637410BD00BF1869012073B583682E
S315080088200446E3B1C368D3B10E4B684619680B68B2
S315080088301B699847D4E90223DDE90065617C0029B4
S3150800884018BF1346D4E900125B1842F10002B3427E
S31508008850AA4104D22046FFF7D3FFC4E9006502B057
S3150800886070BD00BF8C29022038B500230022C0E95C
S315080088700233002304460D46C0E90023027C024861
S3150800888027F010F9657438BD18690120014891F080
S31508008890B2BD00BFA8BC0020014891F0AEBD00BF24
S315080088A0A8BC0020044A08B58368026024324260E6
S315080088B00BB1B9F0DBFD08BDE0340C08A0F10400EB
S315080088C0F0E700BF10B50446054B0360403343602C
S315080088D013F082FE2046FFF7E5FF204610BD00BFD5
S315080088E08CA10C08A0F10400ECE700BF08B5094804
S315080088F022F05EFF084826F077FE50B901210648A7
S3150800890026F0DCF928B9054822F052FF024891F012
S3150800891070FD08BDB0330C08A8BC0020CE330C0887
S315080089200B480C4B10B5036000230B4C0B49224631
S31508008930C0E90133C360037443610383B8F0CFFC15
S315080089402246BDE8104006490648B8F0C8BC00BF34
S31508008950EC300120441F0D0858260220C1DE02080B
S315080089603D0D0808E82702207FB505466B4822F02A
S315080089701FFF29466A4822F01BFF6A4E674822F005
S3150800898017FF694822F014FF33784BB9304625F0B3
S31508008990CBFF041E0CBF01230023337040F0BB80BD
S315080089A001F048F8064678F082FC0446002840F0B4
S315080089B0B280301D21F0CEFC06F1080021F05EFCE5
S315080089C029465A4825F004F8FFF790FF0446002880
S315080089D040F0A180564891F08AFA564CD4E8AF3F49
S315080089E0DA070BD4204698F081FD38B1524A53492C
S315080089F05348B8F074FC204698F07DFD514CD4E8F5
S31508008A00AF3FDB070FD4204698F070FD58B14C49AC
S31508008A104D4813F045FE484A4C494B48B8F05FFCB0
S31508008A20204698F068FD4A4D4A4C474B2846E36372
S31508008A3025F050FAE36865631BB9474B474AE3607C
S31508008A405A60A36BF3B9464DE6686B68002B41D1B3
S31508008A5005F1140078F098F905F11C0078F094F9FE
S31508008A60EB6803B92B7295F824303E4823F00503CA
S31508008A7085F8243078F088F900236E602B7285F823
S31508008A802430A563E36B0BB9374BE363374D384B9B
S31508008A902846E168236289F0C3FF236A28462B61CA
S31508008AA089F0F7F8B0B9E268E5619AB1314B324D11
S31508008AB05A60236103F054FD304B02216062304A4C
S31508008AC02120A3628FF094FA2846E16808F0F6FBA5
S31508008AD000B96561002303932A4B2B4801932B4B5E
S31508008AE0029391F0B0FA01ABE362294B039019495E
S31508008AF02848236015F0BEFC04460D4891F005FA97
S31508008B004CB9254822F054FE094825F0EFFE0446E4
S31508008B1008B900F097FB204604B070BDE7330C088F
S31508008B201A340C08809F002026340C089C66012005
S31508008B30889F0020E4300120582602203F0D0808AF
S31508008B40A4270220E030012020120020C588000852
S31508008B50EC300120A82702207C280220C613022018
S31508008B60A0520120AC520120186300203450012085
S31508008B705C2802202C500120F04F0120602802209A
S31508008B8036340C088D880008A8BC0020998800088F
S31508008B909C2F0120B066002066340C0810B51648D4
S31508008BA0FFF7E2FE08B178F067F9144B1448D3F8DA
S31508008BB0FC128FF015FF124821F0BCFB114891F00A
S31508008BC096F900F037FF00B10C301AF055F90D4848
S31508008BD091F09BF90C4822F0EBFD0C485BF05EFF28
S31508008BE008B178F049F90A4C20683AF04FFF08B105
S31508008BF0B9F03CFC206010BD8B340C08B096002000
S31508008C00E8270220889F002099340C085CB80120C8
S31508008C10E830012010B50F4891F04DFC00210E4AAE
S31508008C200E483AF0DFFE0E4C20600E4822F0C0FDDA
S31508008C3023680BB9B9F01AFC064891F04BFC20F0F2
S31508008C40E1F8094822F0B4FDBDE81040AC2078F000
S31508008C5013B900BF1869012018350C089D8B000848
S31508008C60E8300120AB340C08BE340C0810B50446B5
S31508008C7001210C20064A8FF0BBF90023E068A360A7
S31508008C8020B1BDE8104003689B68184710BD00BFB7
S31508008C903C350C08A0F10400E8E700BF10B50A4C03
S31508008CA0D4E8AF3FDB070DD4204698F01FFC48B147
S31508008CB00648074B074A08490360B8F010FB2046E8
S31508008CC098F019FC014810BD083101200C3101202B
S31508008CD000060D0858260220AB0D080810B50446F4
S31508008CE00B4B03606433436000F50E702DF030FDC6
S31508008CF0636A23B1002204F11C0062629847236963
S31508008D0023B1002204F1080022619847204610BDCD
S31508008D1020940C08A0F10400E0E700BF10B5044653
S31508008D20034B40F8343B78F056F8204610BD00BF98
S31508008D30D48D0C0837B5C0680D46144638B90121DC
S31508008D400C200E4A8FF054F9002003B030BD1A6883
S31508008D502146019200221A6001AA0FF0D5FF01A848
S31508008D6078F039F8A38823B9E38813B92378402B18
S31508008D70EAD02B8943F040032B81E5E74F350C08F1
S31508008D80A0F10400D6E700BFF0B505460C4615204D
S31508008D9003211A4A85B08FF02BF9AF6817B903205B
S31508008DA005B0F0BD0023ADF808302389267B23B92A
S31508008DB06389022B1ED1142E02D00123ADF8083088
S31508008DC060682CF0E5FE63683246039302AB0093B5
S31508008DD0A168384603AB20F0E9FA044603A877F001
S31508008DE0FAFF2CB1A86818B18FF038FA0023AB60E7
S31508008DF02046D5E7002BE0D1402EDDE782350C086A
S31508008E0073B5164810F06CF91549164AD1F8FC32B4
S31508008E10154E164D5360A1F5405133460F4800953F
S31508008E2010F056FA124B336125F004FB044602464D
S31508008E300A49304611F03AFB2946204625F08CF9B6
S31508008E4040B10C4822F0B4FC6D210B4B0B4A0C4880
S31508008E5073F0B2FD6C6002B070BD00BF5016002002
S31508008E60B096002010280220F02702207015002056
S31508008E708051010093350C08AF350C08C4350C0831
S31508008E80E2350C0870B500243248334B334E036084
S31508008E906433436000F10803C0E90233304BC0E98C
S31508008EA00440836100F11C03C0E907332D4BC0E978
S31508008EB00940C0E90B342C4BC0E90D444364203308
S31508008EC083640523C0E92044C0E92244C0E9644418
S31508008ED080F83C40046480F8744080F89841C0F8F3
S31508008EE09C4180F8A04180F8B84180F8D04180F8CC
S31508008EF0E841C0F81C321D4B32461D491D4DC0F8CD
S31508008F003832C0E98F4480F80042C0F8184280F829
S31508008F10204280F84442B8F0E2F93246164917482A
S31508008F20B8F0DDF9324616491648B8F0D8F9284699
S31508008F30154B6C6040F8103B2C7226F07BFEC5E999
S31508008F403444C5E9364432462846BDE870400F49E0
S31508008F50B8F0C5B95016002020940C0858260220EF
S31508008F6085A00108E191010864360C08EC4A0D0851
S31508008F70DD8C000870150020BF0D08081028022097
S31508008F80C10D0808F0270220D48D0C081D8D000895
S31508008F90F0B59FB004463421684616F0CDF8BDF802
S31508008FA00220BDF800309A422ED000273CF05EFC25
S31508008FB002AD0523002215A93CF0C8FB0822169924
S31508008FC02846B9F011FD28468DF81070B9F09DFDB8
S31508008FD00126179BCDE90F502046CDE90C378DF8B1
S31508008FE03860B9F092FD8DF84460CDE912408FF0F3
S31508008FF016FD064B05A905930CAB06932CF0ACFCA5
S315080090004FF480603CF0C6F91FB0F0BD410E080869
S315080090102DE9F04F0446D0E90098D0E90276364AA1
S3150800902087B0936A012105930369D2F82CB0D2F868
S3150800903034A0956B01934369304A0293836903937D
S31508009040C369002004938EF0D3FF01210020059BFD
S315080090502B4A8EF0CDFF5B4601210020294A8EF06F
S31508009060C7FF534601210020274A8EF0C1FF2B4631
S3150800907001210020254A8EF0BBFF2B460121002046
S31508009080224A8EF0B5FF234601210020204A8EF0A1
S31508009090AFFF4B46012100201E4A8EF0A9FF43462A
S315080090A0012100201C4A8EF0A3FF3B460121002027
S315080090B01A4A8EF09DFF334601210020184A8EF089
S315080090C097FF01210020019B164A8EF091FF01218E
S315080090D00020029B144A8EF08BFF01210020039B7F
S315080090E0124A8EF085FF01210020049B104A8EF05B
S315080090F07FFF9AF090FCFEE700ED00E09C360C0836
S31508009100A7360C08BB360C08CF360C08E3360C0815
S31508009110F7360C080B370C081F370C0833370C08C2
S3150800912047370C085B370C086F370C0883370C0871
S3150800913097370C08012108B5074A084B00208EF01E
S3150800914057FF0648FFF724FF9AF065FC04490548CF
S3150800915074F01CF9FEE700BF78930D08AB370C08CE
S31508009160CE370C08E5370C0800240D4600B59BB031
S315080091706022214602A80194B9F00FFC2B4664210F
S31508009180094A01A874F014F90121084A01AB2046DE
S315080091908EF02EFF01A8FFF7FBFE9AF03CFC04496F
S315080091A0044874F0F3F8FEE7FE370C0878930D08C8
S315080091B0CE370C08E5370C08034B0360034B0B60EE
S315080091C04FF4A07313607047C8460120C8410120B8
S315080091D0034B0360034B0B604FF4806313607047C7
S315080091E0104101201031012000240D4600B59BB026
S315080091F06022214602A80194B9F0CFFB2B466421D0
S31508009200074A01A874F0D4F801212046054A01ABA3
S315080092108EF0EEFE01A8FFF7BBFEB9F027F900BFF6
S3150800922011380C0878930D0801481EF09BBC00BF46
S3150800923034540120024B012118683AF04DBC00BF96
S315080092408047012010B50D481EF0EAFB044628B1F8
S3150800925075210B4B0B4A0C4873F0AEFB02F0EEF887
S3150800926002F034F92146094A09483AF0BBFB094B92
S31508009270186008B9B9F0FAF810BD00BF34540120D7
S3150800928021380C082D380C0849380C08CC380C083D
S3150800929029920008804701200021044600B589B0BC
S315080092A01A2201A80091B9F078FB2346074A1E2125
S315080092B0684674F07DF86946054822F079FA6846EA
S315080092C0FFF766FE3BF022FFB9F0D0F8F0380C083D
S315080092D006390C08024B012118683AF0FDBB00BF9D
S315080092E0544901200D4BD9889A8889B292B2914285
S315080092F011D0D9889A8889B292B291423DBF9A888C
S31508009300D8881B89D8882DBF9B8813FA80F0801AC5
S31508009310C01A80B270470020704700BF3C48012041
S31508009320F8B50E46074608B9B9F0A0F8154D2C89C8
S315080093308C42F9D3FFF7D6FF201A80B286421BD893
S31508009340EB88E888E41AA4B2A6422B6815D9224607
S31508009350394613FA80F0B9F0CBFB2868321B391965
S31508009360B9F0C6FBEB8816FA83F12B89B1FBF3F249
S3150800937003FB121189B2E980F8BD3246394613FA61
S3150800938080F0EDE73C48012000232DE9F0411A4E14
S31508009390C2B01A4FADF806314FF0FF3300223068DD
S315080093A001A93AF019FF04460028F5D1BDF806814F
S315080093B095F0BEFA01210546084636F03DFE2846D8
S315080093C095F0BAFA0E4B424601A9386830F092FA7F
S315080093D04FF0FF32214601203AF0C8FB95F0A8FA73
S315080093E005462146012036F027FE284695F0A4FAC0
S315080093F023462246D3E700BF98480120A02702202B
S31508009400D59200082DE9F843DFF850801E46B8F8D3
S3150800941000901546A3EB09070D4BFFB21C89FFF711
S3150800942061FF241AA4B2A74207D8394605EB0900FA
S31508009430FFF776FF0023A8F800300648324629468B
S31508009440054B006830F092F8BDE8F843FFF7F2BE26
S315080094503C480120A027022005940008DCC601200C
S3150800946070B5214E3468002C3CD14FF482711F4AE6
S3150800947019203AF031FE1E4D1E4A286021461E4824
S315080094803AF0B0FA1D4B1E4A9C801A604FF480725F
S3150800949030601A81DC8008B9B8F0E8FF2B68002B29
S315080094A0FAD0184C95F03BF98022174B17492068DB
S315080094B030F05CF88022144B1549206830F056F8D5
S315080094C00B2035F0B1FF0B2035F06AFF0423114A53
S315080094D00521D364A2F5805213650F48BDE8704094
S315080094E095F088BC70BD00BF5449012024390C088A
S315080094F09848012044390C08899300083C48012003
S315080095003FE20120A027022005940008230102203B
S31508009510A30002200020015B0000015B08B5FFF7ED
S3150800952089FE0422014BDA6408BD00BF0020015BF6
S3150800953070B50C460546C2B018B94FF0FF3042B0B8
S3150800954070BD4B1EB3F5817FF7D20B4E33680BB94E
S31508009550FFF786FF2246294601A8B9F0C9FA002373
S315080095601822306801A9ADF806413AF0FBFD00283B
S31508009570E3D120B2E3E700BF98480120F0B50C46D6
S31508009580074685B0002850D000294ED0FFF7AAFE1E
S31508009590A04219D295F0D3F905462548254E03ABC6
S315080095A001A9006802AA95F080FB338802998B42CC
S315080095B007D20198C91A184489B2FFF7B1FE029B6F
S315080095C03380284695F0C1F91B4D2E89B44201D93E
S315080095D0B8F04CFFFFF786FE844202D3FFF782FEFF
S315080095E00446AB88A988F61AB6B2A6422B6817D2E3
S315080095F0324613FA81F13846B9F07AFA2968A21B7D
S31508009600B819B9F075FAAB882A8914FA83F3B3FB4B
S31508009610F2F102FB11339BB2AB8020B205B0F0BD6C
S315080096202246384613FA81F1EBE74FF0FF30F5E7AB
S31508009630A0270220DCC601203C48012010B58CB0CA
S31508009640044677F03BFC0021102208A8B9F0A5F9DA
S3150800965001230E4A02A8CDE903230D4B059407936F
S315080096604FF47053029377F01CFC029B069396F016
S315080096706CF80023000240F00100049001A903A839
S3150800968001939DF0D0FD0CB010BD00BF1271000112
S315080096900906000670B58CB00C461546064677F0E6
S315080096A00DFC0021102208A8B9F077F90123114A08
S315080096B002A8CDE90323104B059607934FF4705380
S315080096C0029377F0EEFB029B069396F03EF8002392
S315080096D0000240F0010021462A460490019303A89F
S315080096E001AB9CF041FF044603A89DF0F7FE204617
S315080096F00CB070BD127100010906000610B50A4BC0
S3150800970086B0144602930023059103901A46CDE9C4
S315080097100033214405A89AF03AFA002814BFAC2071
S31508009720002006B010BD00BFDF0E08082DE9F04185
S31508009730BEB0449D98462B6804460E461746002B35
S3150800974057D06B68B3F5007F53D302A89EF0D4FABE
S3150800975000213C2207A80691B9F01FF9D8F8043071
S315080097608BB1CDE900674021D8F80030224A06A817
S3150800977073F01EFE06A902A89EF0D5FA58B1AC20D1
S315080097803EB0BDE8F081334640211C4A009706A842
S3150800979073F00EFEEEE7092102A89EF0C0FA2068D3
S315080097A0FFF74CFF16A89CF0BCF8216816A83EF0F7
S315080097B0D5FA04460028E2D116A902A89EF0B1FA05
S315080097C000942346D5E9001202A841F04FFE04464C
S315080097D00028D4D12868B9F098F96B680130984206
S315080097E001D9B8F043FE686002A89EF089FA2046BF
S315080097F0C6E72F20C4E700BF68390C0882390C0871
S31508009800F0B50C46002197B00646154607A83C2237
S315080098100691B9F0C2F8402305AACDE9013206AF90
S31508009820009705930E49D4E9002330689DF0C8FADD
S31508009830044698B9059E6B689E420DD8324639464D
S315080098402868B9F055F96B689E4201D9B8F00EFE42
S3150800985020466E6017B0F0BD1920FBE7AC20F9E78B
S3150800986009060006F7B5104C1F4623680D4616462E
S315080098709BB1009202211D200C4A8EF0B9FB75B1EE
S315080098802268B2420DD828460949B9F031F90020B4
S3150800989023683B60206003B0F0BDAE20FBE72F20B5
S315080098A0F9E71920F7E700BF58490120A7390C083E
S315080098B0A301022038B50D461446134602211D2081
S315080098C0054A8EF095FB2B4622460021192063F0A7
S315080098D0BDF9002038BD00BFC3390C0807B5054BD4
S315080098E0802200930021044B63F07EF9002003B028
S315080098F05DF804FBA30102205849012038B5044647
S315080099000D46204677F0FAFA2B7C002857D0052B0F
S3150800991059D0032B17D0042B38D0012B4DD1022256
S315080099202146284677F0A8FB002833D12946284641
S3150800993077F0E6FB70BB95F82430002B0CBF0323A9
S3150800994005232B74DDE795F825209AB1214628468C
S315080099502A7F77F091FBE8B92946284677F011FC6B
S31508009960C0B995F8253073B90223AA691A442A6240
S315080099700423E6E72B7D013BDBB2022B9CBF134A8F
S31508009980D25CAA61F0E72B7F0233EEE795F8243024
S315080099900BB1232038BDAA690AB91820FAE721466F
S315080099A0284677F069FB0028F4D12946284677F03F
S315080099B010FC0028EED10523C3E70320EAE7052BB0
S315080099C001D00D20E6E70020E4E700BFDC390C08EB
S315080099D02DE9F04100240546A046144F86B000F153
S315080099E0AC06304601ABC4F180023919CDF80480C3
S315080099F0FFF738FFB8B18CB10D4B04AA0493802346
S31508009A0002A92846CDE90274059377F06CFCDDE9D6
S31508009A10041285F8B8003046FFF74CFF95F8B800F1
S31508009A2006B0BDE8F081019B1C44DAE7A3020220D8
S31508009A3023020220004870475C4901200021154B8B
S31508009A4010B5154C03F19802626003F1E002236039
S31508009A50A26003F58673802204F12800C4E9041184
S31508009A60C4E90611C4E90811E360B8F096FF0B4B88
S31508009A70C4F8B440C4F8A830094B2046C4F8B0303E
S31508009A80012384F8B830074A0749BDE81040B7F003
S31508009A9026BC00BF683B0C085C490120A83C0C08A2
S31508009AA0E8390C0858260220AD120808F0B5CB781C
S31508009AB00C461546806885B003B9A830A378032BF1
S31508009AC05AD8DFE803F041021A2E00268DF80C60FA
S31508009AD003682188DB6803AA9847D82802D050B1C2
S31508009AE005B0F0BD31462A46208877F090FB00285D
S31508009AF0F6D10020F4E703A9F5E70026ADF80C60D7
S31508009B00036821885B6903AA9847D82803D00028E8
S31508009B10E6D103A900E031462A46208877F08AFB79
S31508009B20E5E70026039603682188DB6903AA9847B8
S31508009B30D82803D00028D3D103A900E031462A4605
S31508009B40208877F08BFBD2E700260396036803AAE2
S31508009B5000929F6A094A4FF400732188B847D828AB
S31508009B6003D00028BCD1054900E031462B46039AAC
S31508009B70208877F087FBBAE72620B1E72F0702206F
S31508009B802DE9F743054608460C4677F0C4F907461B
S31508009B90002845D0264877F0B1F9254E58B18742B6
S31508009BA03A46314628BF0246204677F049FA10B1B0
S31508009BB003B0BDE8F083DFF87C801D4F28E03368EA
S31508009BC0013AC6E90233D8F80031C8F8042158F832
S31508009BD02310013303F03F03C8F800312B680191C5
S31508009BE03A462846DB6901A998470028E0D120466D
S31508009BF077F091F98146384677F080F981454A46EB
S31508009C00394628BF0246204677F01AFA0028CFD1EF
S31508009C10204677F080F918B1D8F80421002ACED169
S31508009C2028462B68DB6803B0BDE8F043184700BF39
S31508009C30204B0120184A012070B504460D460E4EE9
S31508009C40284677F05BF928B923682046BDE87040B6
S31508009C509B68184731462846FFF750FE0D28EFD077
S31508009C6048B9236820469B690349984718B90248AA
S31508009C7077F0AFFBE4E770BD504B012038B50C46D2
S31508009C8094F827300546498A23B1227D0F4877F094
S31508009C90AFFBD0B96FF48072638A1344032B13D8D1
S31508009CA0DFE803F002060409E36AEB6000200CE033
S31508009CB0E36A2B61FAE794F8243083F001032B76E4
S31508009CC003B1E36A6B61F1E7A62038BD184A0120A3
S31508009CD008B503480A7D498A77F08AFB08BD00BFA4
S31508009CE0184A012070B591F826300C46856803B9E4
S31508009CF0A83594F82730227D23B1618A174877F072
S31508009D0077FB50BB237D032B26D8DFE803F016022A
S31508009D100E112B689B6894F82420618A5AB904F1BD
S31508009D202C022846BDE8704018472B681B69F2E7E5
S31508009D302B689B69EFE70022F3E72B68618ADE6AE6
S31508009D4094F8243033B9E26A2846B446A369BDE8D4
S31508009D50704060470022F7E7262070BD184A0120A8
S31508009D6010B50A46498AB1F5A27F16D008D840F23E
S31508009D700513994218D0B1F5A17F0ED0A62017E099
S31508009D8040F2A1139942F9D180680368DC6A9369A5
S31508009D90A446BDE81040D26A604780682C32036842
S31508009DA0BDE810401B691847127D024877F020FB72
S31508009DB010BD00BF184A01202DE9F04100254B6867
S31508009DC092B0052B0746884616468DF805508DF83D
S31508009DD006508DF8075040F2B6800A68023B1344D5
S31508009DE00DF1050102A8CDE903330292059277F039
S31508009DF061F90446002840F0A2800DF1060102A888
S31508009E0077F058F90446002840F099800DF10701CB
S31508009E1002A877F04FF90446002840F09080D8F859
S31508009E2004203368802A00F2898072687F2A40F20B
S31508009E30888003F108027E33CDE907329DF80630A3
S31508009E400692013B0992042B76D8DFE803F0370324
S31508009E50676E5F000020089A069B9A4288BFD41A4C
S31508009E60E5B20446002133680BA803F10802CDE9E0
S31508009E7007231C22069309930A91B8F08EFD022146
S31508009E8006A877F055F89DF8061006A841F0800157
S31508009E9077F04EF89DF8071006A877F049F821469E
S31508009EA006A877F06AF8294606A877F041F8726896
S31508009EB005F10A03934248D9B8F0D8FA01220025D9
S31508009EC07B682B480C932B4B8DF82C200A932A4B36
S31508009ED0CDE90D5503F50172C0E901230360C3609E
S31508009EE00F958DF8405077F074FA244A244B02F502
S31508009EF00271C3E901121A60DA60224BC3F80451F1
S31508009F0006AA02A90AA877F098FAA4E701227B68AC
S31508009F108DF82C200C931C4B0A93F1E703227B68DF
S31508009F208DF82C200C93194BF6E704227B688DF8E4
S31508009F302C200C93164BEFE72A208CE7C224002529
S31508009F4090E71924FBE719248CE7083573600AAAF9
S31508009F502946306823F092FC9DF80600BDF82820B3
S31508009F60023818BF012033685A5312B0BDE8F08191
S31508009F70504B0120FC390C082B0502202303022034
S31508009F80204B0120184A0120243A0C084C3A0C08A8
S31508009F90743A0C0838B500240125144B144803F507
S31508009FA00172C0E901230360C360C0E9084405746F
S31508009FB04482047584610477846277F00AFA0D4B4B
S31508009FC00D4803F50272C0E901230360C360C0E9C6
S31508009FD0084405744482047584610477846277F0C2
S31508009FE0F8F9064BC3E9404438BD00BF2B050220EB
S31508009FF0504B012023030220204B0120184A012040
S3150800A00010B440F26314A142034612D0B1F5B27FF0
S3150800A01007D2B1F5827F20D0B1F5B17F18D0A6203E
S3150800A02009E040F297108142F9D102B112685A62EA
S3150800A03011E01AB92F205DF8044B704711680A4BD6
S3150800A040A1F57A729A42F5D85DF8044B00F07ABE0B
S3150800A05002B112681A620020EDE7002AEAD01168F8
S3150800A0605DF8044B00F066BFB88201002DE9F041A7
S3150800A070002486B0884617461E460B2201AB03A964
S3150800A080CDE90344CDE90144CDF8134000F01AFEAA
S3150800A090044650B140F2012398422DD001211F20D9
S3150800A0A0174A03AB8DF0A4FF26E0019D0A2D01D0C7
S3150800A0B02F24F3E72A4602A903A872F06DFD029A37
S3150800A0C004AB9A42A8F80000F2D12A4602A90DF17B
S3150800A0D0110072F061FD029A0DF113039A4238706D
S3150800A0E0E6D12A4602A905A872F056FD029A0DF194
S3150800A0F016039A423070DBD1204606B0BDE8F081DF
S3150800A100943A0C080023F0B587B001930C46D1E9C0
S3150800A110001201AB00F0E2FD40F20123984225D17E
S3150800A12002AD2A46144B03F110072E4618685968E3
S3150800A130083303C6BB423546F7D163680F2B02D8EE
S3150800A140192007B0F0BD256806AE134603CBB34207
S3150800A150286069601A4605F10805F6D110230193AF
S3150800A160019B6268934204D9B8F080F90028E8D1C7
S3150800A170F6E700206360E4E7903C0C08F0B5B1F51B
S3150800A180AA7F97B0154606461A461C9C3CD8B1F5D8
S3150800A190A07F09D840F20513994266D040F2111300
S3150800A1A099425BD0A6205EE06FF4A0731944132988
S3150800A1B0F8D801A353F821F0A5A20008A5A1000824
S3150800A1C0BFA20008A5A10008C5A20008CBA20008E6
S3150800A1D0D1A20008D7A20008A5A10008A5A10008D9
S3150800A1E0A5A10008A5A10008A5A10008A5A1000829
S3150800A1F0A5A10008A5A10008A5A10008DDA20008E0
S3150800A200E3A20008EDA20008B1F5C17F00F08B803B
S3150800A2100ED840F2651399427BD0B1F5B37F7DD055
S3150800A220B1F5B27FBED12346294600F0A7FD19E055
S3150800A23040F29313994200F0848040F295139942B4
S3150800A240B0D1CDE90D5205B9EAB933683046D3F82D
S3150800A25080300DA9984730B90E9B21E02346294640
S3150800A26000F07AFE48B317B0F0BD00F1280738466B
S3150800A2700392B8F04AFC039A0130CDE90605059722
S3150800A280089215B90AB1B8F0F1F807AB0093304651
S3150800A290728A318A05AB00F007FE0028E3D1089BD5
S3150800A2A023600AE003681B6B294630469847002856
S3150800A2B0D9D12846B8F029FC20600020D3E70368E6
S3150800A2C09B6BF1E703681B6CEEE703685B6CEBE7D7
S3150800A2D003689B6CE8E70368DB6CE5E703685B6D7E
S3150800A2E0E2E72346294600F0EDFCBBE721230DAF44
S3150800A2F00C9303680B970392DB6D0BA99847039A97
S3150800A3000028B0D1134620212A4638468DF07FFC16
S3150800A310D2E72346294600F03DFDA3E72346294612
S3150800A32000F026FE9EE7CDE909530DB9002BAAD108
S3150800A330336830469B6F09A99847002893D10A9B32
S3150800A340AEE7CDE90B520DB9002A9CD133683046E9
S3150800A350DB6F0BA99847002885D10C9BA0E700BFA7
S3150800A360F0B54B680646602B0C461546A5B029D9AC
S3150800A37000278222394603A80297B8F00EFB01ABE4
S3150800A3808622304602A9019700F004FD40F2012317
S3150800A390984210D184220C4902A80192B8F0A8FB71
S3150800A3A02268019902A81EF013FD28606368984286
S3150800A3B005D9B8F05BF80028F2D025B0F0BD60608A
S3150800A3C00020FAE71920F8E7B33A0C0870B500261A
S3150800A3D0044696B02A220D460BA831460A96B8F0CE
S3150800A3E0DCFA01AB2E2220460AA9019600F0C6FC2B
S3150800A3F040F20123984227D118230193174B0AAC40
S3150800A40003F11806224618685968083303C2B3428E
S3150800A4101446F7D100241C22214603A80294B8F05A
S3150800A420BCFA019902AA0AA81EF0D2FC6B68064675
S3150800A430984210D8024602A92868B8F059FB6B68FA
S3150800A4409E4205D9B8F012F80028E3D016B070BDC0
S3150800A45020466E60FAE71920F8E700BF383B0C087B
S3150800A460F0B500264B6895B0032B05460C460196B9
S3150800A47002D8192015B0F0BD0CAF01AB2022394621
S3150800A48000F076FD40F20123984254D14FF08073D4
S3150800A490059302238DF81830384B284607932B6806
S3150800A4A08DF810601B6EADF81260ADF81A60ADF845
S3150800A4B002600DF1020198470028DBD1BDF80220A1
S3150800A4C0B2F5805F01D3B7F0D1FFBDF81A30C2F3F9
S3150800A4D00B0223F4FF5323F01F031343ADF81A307E
S3150800A4E02B6828465B6B0DF1120198470028C1D1ED
S3150800A4F02B682846DB6B05A998470028BAD19DF832
S3150800A5001030BDF812208DF82030ADF822209DF8C5
S3150800A5101730059A09921BB19DF818308DF8283026
S3150800A520BDF81A302146ADF82A30079B08A80B93C8
S3150800A53092F016F99EE700289CD1019B0BB9D8200A
S3150800A54098E70F4A23681188927819809A7062688A
S3150800A5500333033ACDE90232019B3846194602AA6B
S3150800A560089709932AF0E4FF002883D1039B6268C1
S3150800A57003339342A7D863607CE700BF25423401C2
S3150800A580513B0C0870B5B1F5AA7F044616461D4620
S3150800A59092B039D8B1F5A07F06D840F21113994286
S3150800A5A000F08480A620E9E06FF4A073194413290B
S3150800A5B0F8D801A353F821F0BBA60008A5A5000802
S3150800A5C0D5A60008A5A50008EFA6000809A7000853
S3150800A5D023A700083DA70008A5A50008A5A500080B
S3150800A5E0A5A50008A5A50008A5A50008A5A5000815
S3150800A5F0A5A50008A5A50008A5A5000857A7000851
S3150800A6008FA70008A9A70008B1F5C17F00F021812E
S3150800A61026D8B1F5B37F00F0F6800ED8B1F5B27F33
S3150800A62000F0E68040F265139942BBD12A463146CE
S3150800A63012B0BDE8704000F0A7BB40F28113994202
S3150800A640B0D112B1002D40F0FE80002305AACDE955
S3150800A65009238DF81430204609A977F0ABF88DE068
S3150800A660B1F5CB7F00F0098112D840F293139942D5
S3150800A67000F0F98040F29513994293D131462A4663
S3150800A68009A877F037F8204609A900F0D5FB75E048
S3150800A69040F2A113994285D1002A40F0F880802221
S3150800A6A031462830B8F079F9002067E02A46314665
S3150800A6B012B0BDE8704000F049BC02B13DB90022B5
S3150800A6C07949204612B0BDE8704000F0F9B92A462B
S3150800A6D03146F6E702B13DB900227349204612B069
S3150800A6E0BDE8704000F014BA2A463146F6E702B1D2
S3150800A6F03DB900226C49204612B0BDE8704000F012
S3150800A70043BA2A463146F6E702B13DB90022664900
S3150800A710204612B0BDE8704000F05CBA2A463146C1
S3150800A720F6E702B13DB900225F49204612B0BDE8FE
S3150800A730704000F061BA2A463146F6E702B13DB9E3
S3150800A74000225949204612B0BDE8704000F066BAAA
S3150800A7502A463146F6E702B195B900211C220AA815
S3150800A7600991B8F01AF92021504AA38A09A872F06B
S3150800A7701FFE09A90246204600F078FA12B070BDFD
S3150800A7802A46314612B0BDE8704000F06FBA02B1F1
S3150800A7903DB90A224649204612B0BDE8704000F08D
S3150800A7A08BBA2A463146F6E702B1B5B9102105A893
S3150800A7B08EF092FF022310210093212309AA05A8EF
S3150800A7C08DF0C9F90028D9D109A8B8F09EF909A9C8
S3150800A7D00246204600F07CFAD0E7102D01D92F203A
S3150800A7E0CCE70223294600933046212309AAE7E746
S3150800A7F0002AF4D0002BF2D01A46314612B0BDE832
S3150800A800704000F0B5BA02B1B3B90023CDE90933F7
S3150800A810CDF82B30236A09A80293E38A0193E369EA
S3150800A8200093628A218AA36976F01FFF0B222046CD
S3150800A83009A900F097FBA1E71A46314612B0BDE810
S3150800A840704000F08FBB2A46314609A876F052FFC1
S3150800A85001E731461A4609A876F04CFF204609A9B1
S3150800A86000F09EFA8AE731462A4609A876F042FFA2
S3150800A870204609A900F0BAFA80E731461A4609A81F
S3150800A88076F038FF204609A900F0FCFA76E77F2D16
S3150800A890A5D82A4631462830B8F02AF900232C4490
S3150800A8A084F8283000E700BF10820D08E5190D0866
S3150800A8B0553B0C08012903BF034B00201B78A62033
S3150800A8C008BF1370704700BF4F090220022938B528
S3150800A8D014461D460FD1202200210848B8F05DF81D
S3150800A8E03CB1202D2A46214628BF20220348B8F02D
S3150800A8F0FFF8002038BDA620FCE700BF2F0902207C
S3150800A900104608B56AB163B102290CD1202B28BFBD
S3150800A91020231A46029B05491A60B8F0E9F8002078
S3150800A92008BD2F20FCE7A620FAE700BF2F09022062
S3150800A930012905D102B11278024B00201A7070471E
S3150800A940A62070474F0902200023F0B585B00746B8
S3150800A9500E46234803A91546039321F02BF9002830
S3150800A9603CD1204C236813B90398B8F0A9F9D5E966
S3150800A97000121D4B1846B8F0BBF803466868B0F5D8
S3150800A980007F05D2C0F50072FF211844B8F005F81B
S3150800A9906B680221019323681F20144A0093039BC6
S3150800A9A08DF026FB236803980F494FF4007218446C
S3150800A9B0B8F082F93846216821F050FA70B9304665
S3150800A9C0696821F04BFA48B9002022686B6813447D
S3150800A9D013F03F021CBF40339B1A236005B0F0BD3D
S3150800A9E021720800804B01202F070220D83C0C0852
S3150800A9F02DE9F0431D46002389B0074608460E4652
S3150800AA001446CDE9053320F0E1FF18B9D82009B07E
S3150800AA10BDE8F083304605A921F0CCF80028F6D128
S3150800AA20204620F0D3FF0028F0D0204606A921F0C2
S3150800AA30C1F80028EBD1DDE90586079007A9124879
S3150800AA4021F0B8F80446D8B9079B18EB030902D1D8
S3150800AA500EB1B7F00BFD009302213B461F20CDE94E
S3150800AA6001860A4A8DF0C4FA6B689E420AD83246B5
S3150800AA7049462868B8F03CF86B689E42E9D86E608B
S3150800AA802046C4E71924FBE721720800FD3C0C08A0
S3150800AA900020084B10B5186032B9074C2146BDE8AE
S3150800AAA01040064821F0DAB9A1F500518C1830F0AB
S3150800AAB057FDF3E7804B012000E0170821720800D4
S3150800AAC0014821F0FBB900BF00720800002307B552
S3150800AAD00348019301AB21F0B9F803B05DF804FB14
S3150800AAE000720800014821F0A1B900BF0C720800E5
S3150800AAF010B506480C4621F035F840F20123984275
S3150800AB0002BF4FF6F1732380002010BD0C720800B7
S3150800AB10014821F0D3B900BF0D72080073B50026AD
S3150800AB2001AB0C480C461546019621F08FF840F209
S3150800AB300123984208D14CB1062D09D92046294649
S3150800AB40054A76F0EBFD304602B070BD0B20FBE7F8
S3150800AB501920F9E70D7208001B3D0C08014821F081
S3150800AB6065B900BF0B72080010B506480C4620F000
S3150800AB70F9FF40F20123984202BF48F205032380F9
S3150800AB80002010BD0B720800014821F097B900BFDC
S3150800AB900E72080073B5002601AB0C480C46154624
S3150800ABA0019621F053F840F20123984208D14CB19E
S3150800ABB0062D09D920462946054A76F0AFFD3046C6
S3150800ABC002B070BD0B20FBE71920F9E70E720800EA
S3150800ABD0223D0C08014821F071B900BF1072080027
S3150800ABE0002307B50348019301AB21F02FF803B002
S3150800ABF05DF804FB10720800014821F05FB900BF38
S3150800AC0011720800002307B50348019301AB21F030
S3150800AC101DF803B05DF804FB11720800014821F025
S3150800AC204DB900BF12720800002307B50348019307
S3150800AC3001AB21F00BF803B05DF804FB12720800B3
S3150800AC40014821F0F3B800BF0873080010B506489C
S3150800AC500C4620F087FF40F20123984202BF0123E9
S3150800AC602380002010BD00BF08730800014821F0AA
S3150800AC7025B900BF0F72080073B5002601AB0C4852
S3150800AC800C461546019620F0E1FF40F20123984252
S3150800AC9008D14CB10C2D09D920462946054A76F02B
S3150800ACA03DFD304602B070BD0B20FBE71920F9E7E1
S3150800ACB00F7208002C3D0C08014821F0FFB800BFB0
S3150800ACC004720800014820F0C1BF00BF04720800E2
S3150800ACD0014821F00DB900BF1F720800014821F094
S3150800ACE00BB800BF1F720800014821F09FB800BFCB
S3150800ACF00772080013B510480C4620F033FF40F2DF
S3150800AD0001229042034604D14FF470632380002346
S3150800AD100FE070B92388B3F5805FF8D34FF4B873A2
S3150800AD202F240121CDE90034044A054B8DF060F942
S3150800AD302346184602B010BD07720800593D0C0894
S3150800AD40393D0C08014821F089B800BF087208008F
S3150800AD5010B506480C4620F02DFF40F20123984214
S3150800AD6002BF4FF47A732360002010BD08720800F2
S3150800AD70014821F0A3B800BF09720800014820F075
S3150800AD8065BF00BF09720800014821F097B800BFE7
S3150800AD900A720800014820F059BF00BF0A7208006D
S3150800ADA008B50A4602480349FFF7CEFD08BD00BFAD
S3150800ADB026720800277208000B4610B5084A0C468A
S3150800ADC008480949FFF714FED82807D11AF040FBAE
S3150800ADD003682146BDE810409B68184710BD00BFB0
S3150800ADE0277208006A3D0C082672080008B50A464C
S3150800ADF002480349FFF7A8FD08BD00BF24720800F2
S3150800AE00257208000B4610B5084A0C460848094939
S3150800AE10FFF7EEFDD82807D11AF01AFB036821467A
S3150800AE20BDE810405B69184710BD00BF25720800D1
S3150800AE30863D0C082472080008B50A4602480349EC
S3150800AE40FFF782FD08BD00BF2272080023720800C2
S3150800AE500B4610B5084A0C4608480949FFF7C8FDCD
S3150800AE60D82807D11AF0F4FA03682146BDE810403D
S3150800AE701B69184710BD00BF23720800AC3D0C08BB
S3150800AE8022720800022307B501A8D1E9001201932E
S3150800AE90FEF734FC18B90199024820F0DFFF03B029
S3150800AEA05DF804FB207208001FB50220039006987F
S3150800AEB0009003A8FEF73AFC18B90399024820F057
S3150800AEC0CDFF05B05DF804FB20720800002370B5BD
S3150800AED0164886B00D461646049320F077FDE8B16D
S3150800AEE0124804A920F066FEB0B9049B3246002B2E
S3150800AEF008BF0223294605A80593FEF781FC0446E8
S3150800AF00029073681F2001936B6802210093084A18
S3150800AF10049B8DF06DF8204606B070BD1AF098FABD
S3150800AF200368324629469B699847E8E72072080075
S3150800AF30C53D0C08014820F091BF00BF21720800EA
S3150800AF40014820F037BE00BF21720800014820F0F2
S3150800AF50B5BF00BF29720800014820F077BE00BFC0
S3150800AF6029720800014820F0C3BF00BF0572080017
S3150800AF70014820F0C1BE00BF05720800014820F054
S3150800AF803DBF00BF28720800014820F0C3BD00BFBE
S3150800AF902872080008B5114911488EF071F8114950
S3150800AFA011488EF06DF8114911488EF069F811496B
S3150800AFB011488EF065F8114911488EF061F811496B
S3150800AFC011488EF05DF8114911488EF059F8BDE820
S3150800AFD00840104910488EF053B800BF2072080088
S3150800AFE021730800217208002273080022720800E3
S3150800AFF023730800237208002473080024720800CB
S3150800B00025730800257208002673080026720800B2
S3150800B01027730800277208002873080010B5302027
S3150800B0200C461FF0F9FD20B1024B84800360002313
S3150800B030836010BD003F0C0810B52C201FF0ECFDF6
S3150800B040044628B12C220021B7F0A7FC014B236047
S3150800B050204610BD383F0C0808B508201FF0DCFD57
S3150800B06018B100234360014B036008BD543F0C0828
S3150800B070F8B543680446072B0D461FD8013B062B37
S3150800B08096BF0F4A0F4F52F823703846B7F03DFD6A
S3150800B090232813D804F10806242239463046B7F087
S3150800B0A0A3FC0023304684F82B30B7F02EFDC5E903
S3150800B0B000600120636801336360F8BD0020FCE787
S3150800B0C0BC3E0C08103E0C08042370B514464568AF
S3150800B0D08AB0ADF802302B680A4601A805499E6871
S3150800B0E076F0FFFB224628460DF1020301A9B04778
S3150800B0F00AB070BD163E0C0830B54468134622687F
S3150800B1008BB0156901A80A46034976F0EAFB204682
S3150800B11001A9A8470BB030BD233E0C0830B58DB049
S3150800B1204468019223680A4603A80649DD6876F052
S3150800B130D8FB042320460DEB030203A9A8470DB04C
S3150800B14030BD00BF163E0C08F0B5A3B0064617A8DA
S3150800B1501F460C4615468BF00AFB2A2217A80CA98F
S3150800B1608BF018FB0DF10B03019315234FF4807236
S3150800B170009317A800238BF03CFD50BB97E803000B
S3150800B180154B8DE80300D3E9002317A88BF009FEB9
S3150800B190F8B9D7E90201114B8DE80300D3E900237A
S3150800B1A017A88BF0FEFDA0B99DF90B1017A88BF018
S3150800B1B055FD70B97668224633680949DF6803A8E1
S3150800B1C02B4676F08EFB3046BDF874300CAA03A9E0
S3150800B1D0B84723B0F0BD00BFA03F0C08983F0C0845
S3150800B1E0233E0C0813B5044608460A4B1146C4E923
S3150800B1F000300023C4E903330193036822815B6AA4
S3150800B20001AA984710B9019BC4E90303204602B076
S3150800B21010BD00BF1C3F0C082DE9F34183680446A6
S3150800B220032B0D4603D9002002B0BDE8F0818288C1
S3150800B230022100921F20184A8CF0DAFEA368032B1D
S3150800B240F1D8164A52F82360154A304652F8238038
S3150800B250B7F05BFC1028E6D84046B7F056FC102835
S3150800B260E1D804F10C073146384604F11D0676F09C
S3150800B2705EFB4146304676F05AFB3846B7F045FC49
S3150800B280C5E900703046B7F040FCC5E90260A3681E
S3150800B29001200133A360C7E7343E0C08E83E0C08DA
S3150800B2A0D83E0C082DE9F041D0E903329342044612
S3150800B2B00D469EB003D300201EB0BDE8F0812A26B5
S3150800B2C042683B495768ADF802603A68D2F8088088
S3150800B2D0028910A876F005FB38460DF1020305AA87
S3150800B2E010A9C0470028E6D110A88AF086FD324684
S3150800B2F005A910A88AF0C4FD4FF480720023152111
S3150800B30010A88BF0D5F80028D5D10DF1010110A8A9
S3150800B3108AF0C4FF0028CED1264BCDE90100D3E937
S3150800B3200023CDE9030010A88BF0B5F80028C2D198
S3150800B33001AE314610A88BF02AF90028BBD11E4B66
S3150800B34010A8D3E900238BF0A6F80028B3D10DF195
S3150800B3500C08414610A88BF01AF90028ABD110A8A2
S3150800B3608BF08EF80028A6D19DF9011010A88BF055
S3150800B37032F800289FD196E8060004F1140704F174
S3150800B3802506384676F0DBFA98E80600304676F069
S3150800B390D6FA3846B7F0B9FBC5E900703046B7F0BB
S3150800B3A0B4FBC5E90260E36801200133E36083E783
S3150800B3B0233E0C08A03F0C08983F0C08F8B5054634
S3150800B3C00E460024094FAC4206DB1CF067FC084910
S3150800B3D08CF05CF90020F8BD1CF060FC56F82420BF
S3150800B3E039468CF053F90134EDE700BFA83F0C0845
S3150800B3F0AE3F0C08F8B505460E460024064FAC428B
S3150800B40001DB0020F8BD56F824303A4602211C20FC
S3150800B4108CF0EEFD0134F2E778930D0810B51CF0B8
S3150800B4203DFC044689F041FA0349024620468CF061
S3150800B4302DF9002010BD00BFAC3F0C0803220249BD
S3150800B44002481CF0CBBA00BF00400C083454012057
S3150800B4502DE9F04700240646E0B088464FF4BE7250
S3150800B460214601A80094B7F098FAA64228DD6D4651
S3150800B4704FF0200958F824A05046B7F046FB60ABB9
S3150800B4802F189F4202461DD228465146B7F0ACFAFD
S3150800B4907D1C60AB9D4204F101042CBF3D4687F834
S3150800B4A00090A642E6D108488EF0A5FF684696F0B9
S3150800B4B0A9F805488EF0A1FF002060B0BDE8F08726
S3150800B4C02F20FAE71920F8E7A8BC00200122024934
S3150800B4D002481CF083BA00BF4C400C0834540120C3
S3150800B4E010B50446034B40F8083B2CF059FB2046A0
S3150800B4F010BD00BF9C430C0810B50446034B40F82A
