S02300004D6174746572446973687761736865724F7665725468726561645F322E733337CD
S3150800600000120020D98003082BE709085B0E080850
S31508006010290B0A082BE709082BE709082BE70908C3
S315080060202BE709082BE709082BE70908016400088C
S315080060302BE7090810570D08A163000813380A084A
S31508006040CD8503082BE709082BE709082BE709087C
S315080060502BE709082BE709082BE709082BE70908A6
S315080060602BE709082BE709082BE709081596000806
S315080060702BE709082BE709082BE709082BE7090886
S315080060802BE709082BE709082BE709082BE7090876
S315080060902BE70908798D03082BE709082BE7090878
S315080060A02BE70908498F0308258F03082BE70908FA
S315080060B02BE70908AD9F07083DAA070861130C08D6
S315080060C05D130C08E1A107086D130C0865130C088D
S315080060D011AA070869130C087DAA0708E9AA070880
S315080060E02BE709082BE709082BE709082BE7090816
S315080060F04B080A082BE709082BE709082BE70908C4
S315080061002BE709082BE709082BE709082BE70908F5
S315080061102BE709082BE709082BE709082BE70908E5
S315080061202BE709082BE709082BE709082BE70908D5
S315080061302BE709082BE709082BE709082BE70908C5
S315080061402BE70908C5BC03082BE709084F0C0A0802
S31508006150758507082BE7090803130C0809130C08AB
S315080061602BE709082BE709082BE709082BE7090895
S31508006170F0B5114A114C124E00F00105E3695F07AC
S3150800618013D40DB9334213D103EA00078F4207D15E
S315080061900B4A1A40002A0CBF00206FF00100F0BD20
S315080061A0013AEBD16FF00200F9E74FF0FF30F6E75E
S315080061B06FF00100F3E700BF8096980000000350D7
S315080061C00200010070B50B4BD96911F480310DD16D
S315080061D001244FF48072084E084DF46020462C6462
S315080061E01A61FFF7C5FF3464EC6070BD6FF00100FB
S315080061F0FBE700BF000003500010035000200350C7
S315080062004FF4803238B50E4B0E4C9A66E56941F666
S31508006210713315400122E3630B4B0021DA60022338
S31508006220606121202361FFF7A3FF10B92120FFF742
S315080062309FFF0122054BDA600DB10023E36338BDE9
S315080062400090005000000350001003500020035037
S3150800625070B5134C6061E3695B071ED40E4656F8A9
S31508006260043B8D18A361AE420BD1042300212120E3
S315080062702361FFF77DFF58B9BDE870402120FFF77D
S3150800628077BF08210846FFF773FF10B1042323617F
S3150800629070BD56F8043BA361E5E74FF0FF30F7E71A
S315080062A0000003502DE9F84315464FF48032184B89
S315080062B089469A6603F51C33DF690646174041F698
S315080062C07132DA63012203F58053DFF84C80DA6015
S315080062D055B9284601220F4BDA601FB10022A3F5F3
S315080062E00053DA63BDE8F88306F5005404EA0804A7
S315080062F0A41BAC4228BF2C46494622463046FFF727
S31508006300A7FF0028E6D12644A1442D1BE0E700BFDD
S31508006310009000500020035000E0FFFF000000003E
S31508006320000000000000000000000000000000005F
S315080063300B4A1168086806C881F30B88022181F3A5
S315080063401488203080F30988BFF36F8F4FF0000060
S3150800635080F31188104700BFAFF30080AFF30080C9
S3150800636070B30120000000000000000000000000DB
S3150800637007480068006880F3088862B661B6BFF30C
S315080063804F8FBFF36F8F02DF00BF00BFAFF30080F0
S3150800639008ED00E00000000000000000000000001A
S315080063A0EFF30980EFF30B82734620E9FC0F104ADE
S315080063B0116808604FF0300080F31188BFF34F8FE3
S315080063C0BFF36F8F3FF024F84FF0000080F3118879
S315080063D0074A11680868B0E8FC0F82F30B8880F357
S315080063E009881847AFF30080AFF30080AFF3008049
S315080063F070B301200000000000000000000000004B
S315080064001EF0040F0CBFEFF30880EFF30980044970
S31508006410084700BFAFF30080AFF30080AFF30080FA
S3150800642069620408000000002DE9F04F00252DEDF3
S31508006430028B044616462F46A8469FED378B90F8E2
S3150800644038309BB00591039300F1080A0295039A28
S315080064502BB29A420DD1029B20460CA9CDE90C37E6
S315080064608DF838800DF0BCFE1BB0BDEC028BBDE884
S31508006470F08F5AF8043F615D2948049389F019F8AA
S315080064800368069303798DF81C300BB1836808936B
S3150800649083893168ADF82430D0E90423CDE90A238D
S315080064A00B680CA89B699847DDE90AB30193019824
S315080064B0DDE90C23984208BF93459DF8191026D1AB
S315080064C09DF83890894522D1164BC8460C93059BF2
S315080064D0154A10930023314611A81192CDE91233BB
S315080064E08DF850308DED0E8B97F0FEFA316816A8B0
S315080064F00B689B699847049AE36B12680CA906A86F
S3150800650098470CA80DF04CFD019FCDF808B0013551
S315080065109DE700BFAFF30080000000000000000008
S31508006520189A002034710C08144C0D08000000005D
S315080065302DE9F04F2DED028B884204460D4617468D
S315080065401E4697B00AD1034601211D202E4A17B0D0
S31508006550BDEC028BBDE8F04F91F04EBD9FED288B48
S315080065600DF10C092A2148460DF1140818F060FEB1
S3150800657099E8030088E80300DFF890A0DFF890B0F8
S31508006580BDF81400BDF81630834204D117B0BDEC2F
S31508006590028BBDE8F08F18F0ABFF337881468DF893
S315080065A024408DF825508DF826708DF828300BB1CB
S315080065B073680B9309AB0893CDF81CA007F01CFB76
S315080065C000230E938DF840308DF851302A23ADF80C
S315080065D030904FF001090D930CAA6B4607A98DED73
S315080065E0128B8DF850907DF077FF034620B15A46FE
S315080065F049461D2091F000FD404688F034FEBFE76D
S3150800660000000000000000004C990C08589A0C087D
S315080066108C990C08000000002DE9F04F2DED028B37
S315080066209FED318B9DB00DF108092A21044604AD72
S31508006630484616461F46DDF8A48018F0F9FD99E885
S31508006640030085E80300DFF8A8A0DFF8A8B0BDF8C6
S315080066501000BDF81230834204D11DB0BDEC028B88
S31508006660BDE8F08F18F044FF289B81461B78CDE9DA
S315080066700A6708948DF830301BB1289B5B788DF833
S31508006680313098F800308DF838301BB1D8E902233C
S31508006690CDE9102308AB0793CDF818A007F0ACFA9C
S315080066A000232A228DF858308DF869300223ADF878
S315080066B048904FF00109CDE9132306A96B4612AAA3
S315080066C08DED188B8DF868907DF006FF034620B196
S315080066D05A4649461D2091F08FFC284688F0C3FD8E
S315080066E0B5E700BFAFF3008000000000000000001F
S315080066F0809A0C08E3990C082DE9F04F2DED028BD2
S31508006700083085B00F469146DDF8508091F069FB58
S315080067100446002800F09D806E4600259FED508BAC
S315080067204FF0010B41F2A45A10AB0FCB86E80F00CD
S315080067304D4BC4E902552360C4E90455C4E906551E
S315080067402C336360494B04F1480C0FCB84ED0E8B58
S31508006750C4E90C5584F8205084F840508CE80F00A2
S31508006760434B84F858B0A4F85AA0E565C4E919550E
S31508006770236604F17403C4E91D3304F18003C4E9F4
S31508006780203304F18C03C4E923333A4B1022C4F8AE
S31508006790A0302946C4E9295584F86C50E567C4F841
S315080067A08850C4F89450C4F8AC5004F1B000BCF05A
S315080067B094F984F8C0B0A4F8C2A0C4F8C45004F18F
S315080067C0C80092F083F84AF6C873C82284ED388B5D
S315080067D084ED3A8BC4E93C2304F58473C4E9405537
S315080067E0C4E94233A4F8D450A4F8D850C4F81051D8
S315080067F03B68A3607B68E360BB682361FB686361F1
S315080068003B69A3617B69E3613B7E84F8203033B141
S3150800681004F1240307F11C0207CA83E80700384677
S315080068207CF0A7FAA8B9B9F1000F12D0B8F1000F99
S315080068300FD003CE3378C4F8309084F84030012363
S3150800684084F80031231DA063E163C4F89880C4F876
S31508006850AC30204605B0BDEC028BBDE8F08F00BF1A
S315080068600000000000000000B8600C08E853012092
S31508006870144C0D08A8600C082DE9F04F2DED028B7D
S3150800688000240025CBB09946CDE92E450023CDE955
S315080068903045CDE934454FF6FF74DFF898A2064631
S315080068A088461746CDE90C338DF8C8303393CDF8B2
S315080068B0D8A04894A2B3054600F53474A54206D17B
S315080068C00B2420464BB0BDEC028BBDE8F08F284662
S315080068D07DF073FF08B19035F0E79FED8F8BBDF81B
S315080068E05C318DF8C880ADF820318D4B4FF4C871F6
S315080068F00E93002309A8CDE909330F93CDF870A0AC
S315080069000B9385F06BF8099C14BB0B240BA87CF041
S3150800691026F90AA87CF023F909A87CF020F9D0E723
S315080069208AF072FC044608B9AC24CAE706F5347541
S3150800693028467BF0DCF8B4F882308DF8C880ADF8CC
S31508006940203121460CA894ED028B8AF0DFFBCCE7B8
S315080069504FF4C8710AA885F041F8DDF828A0BAF105
S31508006960000FD2D04FF4C8710BA885F037F80B9AF0
S31508006970002ACAD04FF4C8734146CDE913323046CF
S3150800698010AA1094CDE9113A15938AF09DFC044695
S315080069900028BBD14146304612AA8AF077FC044645
S315080069A00028B3D14146304614AA8AF04CFC044666
S315080069B00028ABD110A916A885F006F812A918A8C0
S315080069C085F002F814A91AA884F0FEFF36AB0793DF
S315080069D030AB05930DF1B80A34ABCDE903A30DF13D
S315080069E0700B0EAB8DED008BCDF818B002931AAA7A
S315080069F018A916A81CF0A6FC0446002886D10BA8E0
S31508006A007CF0ADF80AA87CF0AAF809A87CF0A7F8EB
S31508006A10B9F1000F13D1D6F8640300285ED00368D5
S31508006A209B6898470346D6F86403002B4ED0036844
S31508006A305A4641465B699847044688B141E7D9F802
S31508006A40003048465B69984759468AF004FF08B9FA
S31508006A50C52436E79DF85831CDF8CC908DF822310B
S31508006A609DF860315146B3FA83F328465B098DF8E1
S31508006A7023318AF074FE044600287FF422AF2846A4
S31508006A800CA98AF072FB06F55D7495F881303FB360
S31508006A9002211120234A91F0AFFAD5E900122B6999
S31508006AA0CDE9012100936B69022111201E4A91F05C
S31508006AB0A3FA20460F991EF003FC034630BB96F84E
S31508006AC08233013386F882330024FAE603684146A6
S31508006AD0DB6898470028C3D11024F2E60324F0E6C1
S31508006AE0D5E900121120CDE9002102210F4A91F0C3
S31508006AF083FA20460F991EF0E3FB03460028E3D0ED
S31508006B00012111200A4A91F077FADDE701211120C7
S31508006B10074A91F071FAD2E7000000000000000071
S31508006B20A0D60C08CCD50C08ECD50C082FD60C082A
S31508006B3064D60C08981D0D082DE9F0478AB00DF1AA
S31508006B400D0301931523064600934FF48072002324
S31508006B5008460C4690F051F8E8B996F892300122AA
S31508006B600093204600238FF0CFFFA0B996F8933004
S31508006B7002220093204600238FF0C6FF58B90DF174
S31508006B800E0301931623032200932046002390F058
S31508006B9034F8054610B10AB0BDE8F0874FF0100981
S31508006BA006F1C8070DF11808102200214046BBF06F
S31508006BB094FF0DF10F03019315234FF48072009390
S31508006BC02046002390F019F80028E4D196F893207F
S31508006BD0EBB29A4251D917ED0C7BC44637F828AC6C
S31508006BE0A7F12603A7F1160E6246186859680833F6
S31508006BF003C273459446F7D18DED007B042200232A
S31508006C0020468FF05CFF0028C5D1052200232046C8
S31508006C10CDF800A08FF078FF0028BCD14046494641
S31508006C2006228DE8030000232046CDE9048990F06A
S31508006C30B7F80028AFD120469DF90F1090F012F84A
S31508006C40013530370028A6D1032DADD120469DF950
S31508006C500E1090F007F800289DD1B6F88A30072262
S31508006C600093204600238FF04FFF002893D120463B
S31508006C709DF90D108FF0F6FF8DE782469FED027B9A
S31508006C80BAE700BFAFF30080000000000000000074
S31508006C90054B18680368D96901A3D3E90023084797
S31508006CA000E0373B015D0300842A02200000000053
S31508006CB02DE9F84F402200212948BBF00EFF30226B
S31508006CC000212848BBF009FF00209FED237B264BB7
S31508006CD0264E274ADFF888B0DFF8ACA0DFF8AC907C
S31508006CE0DFF8AC80DFF8ACE01E4FA3F1180C2425C2
S31508006CF0002145430BEB401443E9054A0CEB050418
S31508006D0043E9039843F8181C43F804EC21772162F9
S31508006D10182404FB007442F8144C164C42F8181C4C
S31508006D2042F8104C144CA6EC027B42F80C4C134C5F
S31508006D3043F8241B42F8084C114C42F8044C114CF9
S31508006D402C442177216242F8241B08B1BDE8F88F4C
S31508006D500120CCE7AFF3008000000000000000002F
S31508006D60C8AB012098AB012068AB0120A8D500204C
S31508006D7020AB0120FD140408B70D0A08D50D0A0832
S31508006D80F50D0A0808AB012025150408F10D0A08B7
S31508006D90D90D0A08650E0A082DE9F043022089B0C4
S31508006DA03BF028F800B9FEE75F4E336803B9FEE703
S31508006DB010203BF01FF833685C4C9B880DF10B01E3
S31508006DC08DF80B30012320681A46B9F027FD9DF887
S31508006DD00B203168023A0023096892B22068B9F09C
S31508006DE01DFD534B05AF93E8070087E80700336896
S31508006DF01B681D7815F020051FD02068B9F049FBDF
S31508006E00002867D02068B9F044FB74F09BFB024663
S31508006E100B4641A1D1E9000174F038FD8046079878
S31508006E20894674F08FFB02460B464046494674F085
S31508006E304DFA74F09BFE012507902068B9F045FBD2
S31508006E409DF80B30002848D0981DC00074F08AFBC6
S31508006E5033A3D3E9002374F0EFFB80462068894604
S31508006E60B9F033FB74F06EFB02460B4640464946C2
S31508006E7074F00CFD80460798894674F063FB024659
S31508006E800B464046494674F021FA74F06FFE3268A4
S31508006E900790536973BB10203AF0ACFF10B3079BF9
S31508006EA0326803F5FA73117E0793224B99702249CB
S31508006EB00978D970917900972A462068B9F059F867
S31508006EC028B14FF480503BF083F89CF0A6FA09B03D
S31508006ED0BDE8F0830798C030ADE70798063300EBA6
S31508006EE04310D4E731683B462A4689792068B9F0C9
S31508006EF02AF8E5E711690B44A03B03930023ADF894
S31508006F0010300E4B9179009301972A46206803ABFF
S31508006F10B9F03AF8D4E700BF0000000060E3664124
S31508006F200000000080842E41F8AC012054AC0120FA
S31508006F30B4760D08F82A0220A4310220EC2A022091
S31508006F40F7B501203AF056FF0446002840F0B58010
S31508006F505D4D5E4B5E4EC5E9003005F11003AB6032
S31508006F6041F60B233060B3803BF0BAFF594B1B6ADE
S31508006F70DB0700D4FEE72146284669F09FFF044652
S31508006F8000B9FEE76BF062FB00B1FEE72046524906
S31508006F906AF0A8FE00B1FEE702212046B9F04CFAD5
S31508006FA000B1FEE720464D496BF03EF900B1FEE719
S31508006FB001212046B9F0C7FD00B1FEE701212046B0
S31508006FC0B9F0D7FD074600B1FEE701463C22444822
S31508006FD0BBF083FD80233A46204605F11401B9F03B
S31508006FE033FC802800D0FEE73E4D0120B8F0A6FF0E
S31508006FF033A3D3E900232C602046CDE900234FF0C4
S31508007000FF324FF0FF33B9F0CBFA014600B1FEE785
S315080070102F483AF033FF012108463AF01BFF0121B9
S315080070202868B9F05CF9044600B1FEE72E4B2F4AF2
S31508007030988018602E4B1A60FF2298802D4B83F893
S3150800704020202D4A98801A602C4A6FF06300DA6077
S3150800705044F00CFB33790B2B11D873790A2B0ED914
S31508007060274B1E6034F07CFD20463BF02BFF0822A0
S3150800707028681146B9F0AEFA044608B1FEE7FEE7FD
S315080070803BF018FF1F4B10211F481C709CF031FB6A
S3150800709000B9FEE71D491C489CF03DFB00B9FEE718
S315080070A010218C201A4A99F0DAFC00B1FEE719483B
S315080070B003B0BDE8F040A2F051B803B0F0BD00BF80
S315080070C00BE020FFE203000064AC01201520040851
S315080070D05CAC01200080E00F0700110080760D08E7
S315080070E014AC012054AC012018D600206F1E0220D3
S315080070F0F0D50020C8D50020EF1D0220B8D5002005
S3150800710058AC0120F11E02200CAD012051150A08C9
S31508007110FCAC0120CA6C0C082DE9F3411E461C4B39
S31508007120044683424FF000038B4115460AD216A344
S31508007130D3E9002374F08AFD164914460246284608
S31508007140A4F096FC144B4EF66021B4FBF3F203FB55
S315080071501244B4FBF1F34FF47A7801FB1344B4FB01
S31508007160F8F728460D490097A4F082FC46B1284650
S3150800717008FB17420A4902B0BDE8F041A4F078BC02
S3150800718002B0BDE8F08100BF005C260500000000E3
S31508007190FF5B260540B70D0880EE3600DBD90C08E4
S315080071A046B70D08000000004FF4FA7230A1D1E985
S315080071B00001274B2DE9704300245A82322201250B
S315080071C04FF000084FF00009224EC3E90201DA82A7
S315080071D0204632462049C3E900891D741D751C7670
S315080071E083F8204083F8304083F84040BAF017F916
S315080071F01A4832461A4905700571057305740576ED
S3150800720080F8205080F8305080F83850154DC0E985
S315080072100A89C0E9108984604461BAF000F9124805
S315080072203246294604720474047680F82840BAF077
S31508007230F6F80E48324604720474047680F828403C
S315080072402946BDE87043BAF0EAB800BFAFF300803C
S31508007250C824012050270220E3990B088024012026
S31508007260DF990B08E1990B08482401201024012016
S315080072700080C6A47E8D03002DE9F84FDCA1D1E974
S315080072800001C74A00242DED048B012541F28839F7
S315080072904FF4FA6840F6B8374FF0640B4FF4FA7AB1
S315080072A04FF47A73C2E90001B1A1D1E90001C2E93C
S315080072B00201B1A1D1E90001C2E91401B0A1D1E9E5
S315080072C00001C2E916010021B64EB748A2F862309D
S315080072D0C2E92801ACA1D1E900011574C2E92A0165
S315080072E0A2F812901575A2F816801576578382F8BB
S315080072F0204082F8304082F8404082F8605082F898
S315080073006450A2F866B082F86850A2F86AA082F8BB
S31508007310704082F8804082F8904082F8B050A2F817
S31508007320B29082F8B450A2F8B68082F8B850A2F8A3
S31508007330BA70204682F8C0409C4982F8D04082F84C
S31508007340E0403246BAF06BF84FF0FF31984A994858
S315080073509FED8F8BC2E902014FF0FF3196489FEDF2
S315080073608E9BC2E9140141F2873000214FF47A73EB
S31508007370C2E9160141F288300021A2F86230C2E95A
S31508007380280182ED009B82ED2A8B1574A2F81290D3
S315080073901575A2F816801576578382F8204082F86C
S315080073A0304082F8404082F8605082F86450A2F873
S315080073B066B082F86850A2F86AA082F8704082F82F
S315080073C0804082F8904082F8B050A2F8B29082F8D5
S315080073D0B450A2F8B68082F8B850A2F8BA7082F80B
S315080073E0C04082F8D040204682F8E04073493246D1
S315080073F0BAF015F84FF0FF31714A72484FF47A73B4
S31508007400C2E900014FF0FF316F48A2F86230C2E9C5
S31508007410140100216D4882ED029BC2E91601002184
S315080074206B4882ED288BC2E92A011574A2F81290DE
S315080074301575A2F816801576578382F8204082F8CB
S31508007440304082F8404082F8605082F86450A2F8D2
S3150800745066B082F86850A2F86AA082F8704082F88E
S31508007460804082F8904082F8B050A2F8B29082F834
S31508007470B450A2F8B68082F8B850A2F8BA7082F86A
S31508007480C04082F8D040204682F8E0405149324652
S31508007490B9F0C5FF002000214FF496784FF0000997
S315080074A04D4B0222C3E90201C3E92001C3E93E01AB
S315080074B04FF47A700021C3E904894FF4FA784FF043
S315080074C00009C3E94001A3F8F020204632464349A3
S315080074D0C3E922891C801C7683F8204083F828405B
S315080074E083F8304083F8384083F8484083F858409A
S315080074F083F86840A3F8785083F8904083F898405A
S3150800750083F8A04083F8A84083F8B04083F8C040C9
S3150800751083F8D04083F8E04083F8084183F81041A7
S3150800752083F8184183F8204183F8284183F83841C5
S3150800753083F8484183F85841B9F071FF284B324621
S315080075402046284983ED048B1D701D72B9F067FF2C
S31508007550254B324683ED048B1D701D722046BDEC0B
S31508007560048BBDE8F84F2149B9F059BFAFF3008045
S31508007570806967FFFFFFFFFF816967FFFFFFFFFF66
S315080075807F9698000000000080F0FA0200000000D4
S31508007590A0860100000000006079FEFFFFFFFFFFE4
S315080075A0902801205027022080969800579A0B08A9
S315080075B0A027012078ECFFFF79ECFFFF7B9A0B08E8
S315080075C0B0260120E05EF8FF6179FEFF9F86010084
S315080075D020A107007D9A0B08482501207F9A0B08F1
S315080075E030250120679A0B0818250120799A0B087F
S315080075F0800F05FDFFFFFFFF002370B5404C0546D1
S315080076008AB0E36318B10088236062F09DFC3D48A8
S31508007610B8F001FF3C4E3D4B304633603C4B73603F
S315080076205EF0E4F80021304669F048FC32A3D3E95D
S315080076300023A062C4E90623B5F090FBD4E906232B
S3150800764019431043C4E90601CDE900014FF0FF33A1
S315080076504FF0FF32A06AB8F0A3FF02224FF0FF31C5
S31508007660A06AB8F0B7FF012062F0EEF94FF4007394
S3150800767000222849A06AB9F0E7F8B0F5007F38D1AA
S3150800768000239422CDE9073309933C23CDE903323D
S3150800769005939623A06A03A906936AF047F835B3BB
S315080076A0287C62F0D1FD0546F0B9A06AB9F0A6FAC1
S315080076B062F078FD62F0AAF920B14FF480700021DB
S315080076C060F012FB62F0B2F920B14FF400600021BD
S315080076D060F00AFBB5F0FCFB0120B8F02FFC0E4A5F
S315080076E00E49A06AB5F02EFB28460AB070BDFF20E9
S315080076F0D7E70725F8E700BF0DD50155200000009C
S31508007700A0290120690345EC90BD0120CD98060803
S31508007710A0BD012090BB0120EDCC0B082DCD0B0898
S315080077200348044B834202D0034B03B11847704702
S31508007730C0320220C032022000000000064B074972
S31508007740C91A891048BF0131491003D0044B0BB13F
S3150800775001481847704700BFC0320220C0320220D5
S315080077600000000010B5064C237843B9FFF7D8FF90
S31508007770044B13B10448AFF300800123237010BDF6
S3150800778060CA01200000000048130E0808B5054B22
S315080077901BB105490548AFF30080BDE80840FFF76F
S315080077A0CDBF00BF00000000202F012048130E089F
S315080077B0A3F5803A704700BF174B002B08BF134B41
S315080077C09D46FFF7F5FF00218B460F461348144ADE
S315080077D0121ABBF082F90E4B002B00D098470D4BBE
S315080077E0002B00D098470020002104000D000D480A
S315080077F0002802D00C48BAF0E0FE76F021F9200005
S315080078002900B2F023FD75F001F900BF0000080059
S3150800781000000000000000000012002000120020F6
S3150800782080250220BB250C0800000000002201214B
S31508007830014899F068BF00BF5427022008B50448DC
S3150800784097F092F8BDE80840024897F08DB800BF57
S3150800785090300C0878300C0808B5044897F0B2F850
S31508007860BDE80840024897F0ADB800BFC0300C0824
S31508007870A8300C0818B1034B186000207047252063
S31508007880704700BF382F012010B5054C0549206800
S3150800789031F09AFF2068BDE81040FFF7EBBF00BF44
S315080078A0982802206C27022070B58B680646012BA3
S315080078B00D4614468CB025D0022B33D0002B3ED172
S315080078C019461C2205A8BBF008F9214605A876F03A
S315080078D0C5FE044638B92946304605AA0BF04CFFC2
S315080078E000283ED10446294630460023852205F065
S315080078F087FA234602211D201B4A0CB0BDE87040BA
S3150800790090F07ABB0023114605A8ADF8143076F03E
S31508007910DEFE04460028E6D12946304605AA0BF0C5
S31508007920B7FFDDE7114605A876F0D3FE0446002822
S31508007930D9D12946304605AA0CF012F8D0E700231B
S31508007940812205F05DFAD5E9012391B2120C019264
S315080079509AB20291009201211D20044A1B0C90F054
S315080079604BFB0CB070BD00BF0C310C08D8300C08AE
S3150800797070B58B6806460C4688B0F3B9114604A85C
S31508007980ADF810308DF8143077F0C4F8054628B9EC
S315080079902146304604AA82F061F900BB21463046EA
S315080079A00023852205F02CFA2B4602211D200D4ABC
S315080079B008B0BDE8704090F01FBB0023812205F097
S315080079C01FFAD4E9012391B2120C01929AB20291DC
S315080079D0009201211D20044A1B0C90F00DFB08B0F3
S315080079E070BD00BF0C310C08D8300C0870B58B6818
S315080079F00646022B0D4614468AB026D0042B36D0EE
S31508007A00002B41D10022ADF810300023214604A8EE
S31508007A10CDE9062376F080FD044638B92946304676
S31508007A2004AA0DF0AFF9002840D10446294630468D
S31508007A300023852205F0E4F9234602211D201C4A6D
S31508007A400AB0BDE8704090F0D7BA1822002104A801
S31508007A50BBF043F8214604A877F070FD04460028D9
S31508007A60E4D12946304604AA0DF0BEFADBE71146F2
S31508007A7004A876F07AFD04460028D7D12946304670
S31508007A8004AA0DF0F7F9CEE70023812205F0B8F92C
S31508007A90D5E9012391B2120C01929AB20291009291
S31508007AA001211D20034A1B0C90F0A6FA0AB070BDEE
S31508007AB00C310C08D8300C0870B58B6806460D4694
S31508007AC088B0ABB1012B36D00023812205F098F996
S31508007AD0D5E9012391B2120C01929AB20291009251
S31508007AE001211D201A4A1B0C90F086FA08B070BDB9
S31508007AF000200021CDE90601114604A8CDE904338A
S31508007B0076F036FD044638B92946304604AA82F08E
S31508007B105CFE0028EAD10446294630460023852221
S31508007B2005F06EF9234602211D200A4A08B0BDE871
S31508007B30704090F061BA114604A876F042FD0446FA
S31508007B400028E9D12946304604AA0DF095FDE0E75C
S31508007B50D8300C080C310C0870B50D46AB680646D3
S31508007B6011469CB0042B5BD8DFE803F003305A3F7C
S31508007B704E00002304A8ADF810308DF812308DF8A9
S31508007B8014308DF820308DF830308DF840308DF86F
S31508007B9050308DF8603078F0F0FB044638B9294645
S31508007BA0304604AA0DF074FE00284CD10446294636
S31508007BB030460023852205F023F9234602211D209D
S31508007BC0224A1CB0BDE8704090F016BA002304A8FB
S31508007BD0ADF8103076F0FFFD04460028E7D12946B7
S31508007BE0304604AA0EF030F9DEE7002304A8ADF803
S31508007BF0103076F0F2FD04460028D8D129463046E2
S31508007C0004AA0DF02FFFCFE704A876F0E8FD044696
S31508007C100028CCD12946304604AA0EF06FF9C3E7EE
S31508007C2000238122294605F0EBF8D5E9012391B214
S31508007C30120C01929AB20291009201211D20044A67
S31508007C401B0C90F0D9F91CB070BD00BF0C310C08A4
S31508007C50D8300C0870B58B6806460D4686B0ABB1B1
S31508007C60402B32D00023812205F0CAF8D5E901233A
S31508007C7091B2120C01929AB20291009201211D2032
S31508007C801A4A1B0C90F0B8F906B070BD114605A843
S31508007C90ADF8143076F0FDF9044638B92946304671
S31508007CA005AA83F00FF80028EED104462946304687
S31508007CB00023852205F0A4F8234602211D200C4A3C
S31508007CC006B0BDE8704090F097B90023114605A8A4
S31508007CD0ADF8143076F0FFF904460028E6D12946B7
S31508007CE0304605AA0EF0D4F9DDE700BFD8300C08F7
S31508007CF00C310C0870B58B6806460C468CB033BB45
S31508007D0000200021CDE90401114604A8ADF8183079
S31508007D108DF81A308DF81C30ADF8283077F0F0F968
S31508007D20054628B92146304604AA12F06DFF00BB65
S31508007D30214630460023852205F062F82B460221AB
S31508007D401D200D4A0CB0BDE8704090F055B90023CF
S31508007D50812205F055F8D4E9012391B2120C01925B
S31508007D609AB20291009201211D20044A1B0C90F040
S31508007D7043F90CB070BD00BF0C310C08D8300C08A4
S31508007D802DE970430D46AB680646114690B00B2B9D
S31508007D9000F2A280DFE803F006A026A035A046611F
S31508007DA0A0728190002304A8CDE9043376F094FCF0
S31508007DB0044640B92946304604AA0FF0A5FF002814
S31508007DC040F09D800446294630460023852205F06A
S31508007DD017F8234602211D204A4A10B0BDE8704311
S31508007DE090F00AB9002304A88DF8103076F076FCD6
S31508007DF004460028E7D12946304604AA0FF022FF98
S31508007E00DDE7002304A8CDE904338DF8183077F0B0
S31508007E10F1F804460028D6D12946304604AA10F0BF
S31508007E2053F8CCE700234FF000084FF0000904A8E8
S31508007E30CDE90433CDE90933CDE90C898DF818303D
S31508007E40ADF8383077F00EFA04460028BBD129463B
S31508007E50304604AA0FF00EFCB1E7002304A8CDE9CA
S31508007E6004338DF8183077F0FBF904460028AAD1B8
S31508007E702946304604AA0FF04FFBA0E7002304A8C2
S31508007E80CDE9043376F054FC044600289BD12946F4
S31508007E90304604AA0FF0DEFD91E7002304A88DF80A
S31508007EA0103076F067FC044600288CD12946304607
S31508007EB004AA0FF051FE82E7002304A8CDE9043393
S31508007EC076F05AFC044600287FF47DAF29463046F2
S31508007ED004AA0FF0FFF972E700238122294604F06D
S31508007EE08FFFD5E9012391B2120C01929AB2029141
S31508007EF0009201211D20044A1B0C90F07DF810B059
S31508007F00BDE870830C310C08D8300C0870B58B6846
S31508007F1006460C4686B0D3B9114605A876F098FBF6
S31508007F20054628B92146304605AA85F006FC00BB59
S31508007F30214630460023852204F062FF2B460221A3
S31508007F401D200D4A06B0BDE8704090F055B80023D4
S31508007F50812204F055FFD4E9012391B2120C019253
S31508007F609AB20291009201211D20044A1B0C90F03E
S31508007F7043F806B070BD00BF0C310C08D8300C08A9
S31508007F8070B58B6806460C4686B0D3B9114605A867
S31508007F9076F061FB054628B92146304605AA13F056
S31508007FA021FC00BB214630460023852204F028FF29
S31508007FB02B4602211D200D4A06B0BDE8704090F000
S31508007FC01BB80023812204F01BFFD4E9012391B2D8
S31508007FD0120C01929AB20291009201211D20044AC4
S31508007FE01B0C90F009F806B070BD00BF0C310C08E8
S31508007FF0D8300C0837B543680446032B15463AD0E3
S31508008000A3F12A02152A5ED8152A5CD8DFE802F001
S315080080103B5B5B5B5B5B1B5B13234B535B5B5B5B9A
S315080080205B5B0B5B432B0A462846214603B0BDE83B
S315080080303040FFF739BC0A462846214603B0BDE85A
S315080080403040FFF795BC0A462846214603B0BDE8EE
S315080080503040FFF7CBBC0A462846214603B0BDE8A8
S315080080603040FFF729BD0A462846214603B0BDE839
S315080080703040FFF771BD0A460146284603B0BDE801
S315080080803040FFF7E7BD0A462846214603B0BDE85B
S315080080903040FFF72FBE0A462846214603B0BDE802
S315080080A03040FFF76DBE0A462846214603B0BDE8B4
S315080080B03040FFF72BBF0A462846214603B0BDE8E5
S315080080C03040FFF75DBF9AB2009201211D20064A93
S315080080D01B0C8FF091FF0023C3222146284603B0CC
S315080080E0BDE8304004F08CBE35310C0840F201136F
S315080080F0984219D0B0F5817F05D23C280CD0992832
S315080081000FD00020704740F20E53984221D0134BEF
S315080081109842F6D1122918E002298CBF00200120C6
S315080081207047481E0628F8E72929EAD8192903D8E6
S31508008130012909D8012070474FF20913A1F11A0045
S31508008140C34003F001007047032914BF0020012033
S3150800815070470029EED0881E0128DEE705FCF1FFEE
S31508008160024B1B780BB100230373704763CA0120C7
S3150800817002211D20014A8FF03FBF00BF51310C0874
S3150800818002211D20014A8FF037BF00BF61310C085C
S3150800819008B5044A02211D208FF02EFFFF22024B4C
S315080081A01A7008BD70310C089E31022070B5294D31
S315080081B0037D04462B70837D23B103212120264AA3
S315080081C08FF01AFF2B78FE2B22D0FF2B30D00B2BEB
S315080081D037D80B2B35D8DFE803F0061206343434CB
S315080081E034343434341290F01EFC036841F288317A
S315080081F05D692346194AAC46BDE87040604790F071
S3150800820012FC036842F210715D69144A2346F2E7CC
S3150800821090F009FC036822465B6A1049984790F07B
S3150800822002FC03684FF47A715D690C4A2346E2E75B
S3150800823090F0F9FB03682246BDE870405B6A07497F
S315080082401847FF232B700221BDE870401D20044A01
S315080082508FF0D2BE9E3102208A310C089181000827
S31508008260BD310C0848F2020210B5038893421BD8A8
S31508008270B3F5004F1FD990F90830012B03D090F9B8
S315080082800930012B17D102210B4A21208FF0B4FEA9
S3150800829090F0C9FB036840F6B8315C69074AA44602
S315080082A0BDE810400023604748F20402934202D119
S315080082B0027A034B1A7010BDD2310C08C30C080899
S315080082C063CA012008B522F0CDFF22F0FDFF0A4857
S315080082D027F00CFA084827F003FA00224FF46171D8
S315080082E0064886F0CFFB30B1BDE8084001212120C1
S315080082F0034A8FF081BE08BDA8BC00205891002013
S31508008300FA310C0810B50A200C46104A10213BF029
S31508008310B3FE0F4B186040B9212001210D4A8FF09A
S315080083206BFE40F2017078F0ABFD20460A4A084918
S315080083303BF028FB40B921200121084A8FF05CFE5A
S3150800834040F2027078F09CFD002010BDD8340C086D
S31508008350D430012028320C08B4340C084B320C08EF
S31508008360F7B5334BDB7D2BB1FA221146314878F04D
S31508008370D3FC4EE0304B1B78FF2B3DD00B2B48D857
S31508008380DFE803F006090C474747474747474711C1
S3150800839032223221EAE74FF47A72E6E74FF42F7277
S315080083A04FF49671E2E7254E6846337840F2B634C4
S315080083B0002B234B08BF4FF42F75196818BF3225B9
S315080083C00B6808BF4FF496741B699847DDE900727D
S315080083D01C49D1E9003013F57A7340F100009F4239
S315080083E072EB000015D33378C1E9007283F00103FC
S315080083F0224629463370B9E7134B1B7883B1134BD2
S315080084001B786BB1124B1B7833B10121094800F078
S31508008410A7FA012003B0F0BD322240F2B631A5E733
S315080084200C4B1B780BB164229FE740F2B632B0E7DB
S31508008430B02F0120081200209E31022061CA0120B7
S31508008440842A02200012002063CA012006DB0120CC
S3150800845005DB012004DB012010B5084B084C187019
S31508008460204691F0F6FD074B1870204691F049FE1C
S31508008470054B1870BDE81040FFF772BF63CA0120AC
S31508008480A8BC002006DB012005DB012008B514483E
S3150800849091F036FDA0B1134891F0DBFD124B187030
S315080084A0104891F02EFE114B1870114825F012FB5A
S315080084B0003818BF01200F4B1870094891F029FDA4
S315080084C00D4B1B780BB9FFF74BFF0C4800F022FA4F
S315080084D00B4B186818B1BDE8084000F01BBA08BD78
S315080084E0889F0020A8BC002006DB012005DB0120B0
S315080084F09C66012004DB012062CA012008120020C4
S31508008500AC2F012008B5094B18683BF0C7FB0130B2
S315080085100AD121200121064A8FF06EFDBDE80840E8
S3150800852040F2067078F0ACBC08BD00BFDC30012014
S3150800853065320C084FF47A7108B50A4B8002B0FB15
S31508008540F1F118683BF084FB50B121200121064A5D
S315080085508FF052FDBDE8084040F2057078F090BCF7
S3150800856008BD00BFDC3001207D320C0810B540F68E
S31508008570B83302210B4A21208FF03EFD40F6B83071
S31508008580FFF7D8FF0122084C084B204600211A7035
S3150800859000F0E6F92046BDE810404FF4FA7178F08D
S315080085A0BFBB00BF96320C080812002062CA012021
S315080085B008B5FFF7A7FF064B1A7842B100221A70D2
S315080085C00221BDE808402120024A8FF015BD08BDEA
S315080085D062CA0120D5320C0808B5094B0A21186869
S315080085E03BF036FB50B121200121064A8FF004FDED
S315080085F0BDE8084040F2057078F042BC08BD00BFEF
S31508008600D8300120F5320C0808B5094B0146186820
S3150800861058B1002318223BF075FD40B1054A0121E7
S31508008620BDE8084021208FF0E7BC034AF7E708BDFC
S31508008630D43001200D330C083A330C081FB501233A
S31508008640ADF80030044B019068460393FFF7DCFF52
S3150800865005B05DF804FB00BF89860008CB680846AC
S3150800866003B1184702212120014A8FF0C5BC00BF7B
S315080086705B330C0800220249024826F0F9B800BF0D
S31508008680B9880008889F00200388012B06D1044B6F
S315080086901B780BB9FFF76ABFFFF7ECBF704700BF3F
S315080086A062CA012000220249024826F0E1B800BF4A
S315080086B0C5820008889F002010B5A4B003AB0193BB
S315080086C0812301AC029301F031FA214601F044FFFF
S315080086D028B994E8030015F0C1F924B010BD0121AA
S315080086E02120024A8FF088FCF7E700BF8B330C087D
S315080086F000230246194610B5044625483BF062FA9F
S31508008700244B186040B921200121234A8FF074FCBC
S3150800871040F2047078F0B4FB0023224601211F487A
S315080087203BF050FA1E4B186040B9212001211D4A22
S315080087308FF062FC40F2047078F0A2FB022121203F
S31508008740194B1A4A8FF058FC194A02210123212095
S315080087508FF052FC21F0F4FE03685B6F9847012006
S31508008760FFF7AAFF00F0C2F80021124878F0DCFAF9
S3150800877000221149114891F084FB114891F0B3FC8D
S31508008780104B11491870114888F0DFFD10BD00BF65
S315080087903D860008DC300120A3330C08F10C0808DC
S315080087A0D8300120BD330C08566D0C08D7330C0899
S315080087B0FB330C080812002065820008889F0020F9
S315080087C0A8BC002063CA0120A02F0120C88B002066
S315080087D010B50379012B05D1BDE8104040F6B83035
S315080087E0FFF7A8BE134B1C781CB1BDE81040FFF775
S315080087F0DFBEFFF787FE2046FFF75EFF0E4B1C78AD
S31508008800A4B90E4891F077FB22464FF461710C48E3
S3150800881086F038F90446094891F07BFB4CB10121F2
S31508008820084A2120BDE810408FF0E6BB0221064A1F
S31508008830F7E710BD62CA012063CA0120889F00209D
S3150800884058910020FA310C0818340C087FB5114BE2
S31508008850002401930223104E104D00930121104B62
S315080088603046CDE902440F4A0DF04CFC2A46304604
S315080088700D49B8F0D4FD2A460C480D4B0D49036046
S315080088803033C0E90244436004B0BDE87040B8F034
S31508008890C6BD00BFAD810008B02F012050270220B9
S315080088A08181000871810008396101089C2F012027
S315080088B060340C08BD0C080810B50121094827F0DA
S315080088C047F920B101F032F9012178F00CFD06488C
S315080088D025F01CFF21F034FEBDE8104003681B6F2D
S315080088E0184700BF18690120889F0020014891F0A9
S315080088F0F3BD00BF1869012010B50446017C044881
S3150800890027F05EF9637C83F00103637410BD00BF32
S315080089101869012073B583680446E3B1C368D3B107
S315080089200E4B684619680B681B699847D4E90223F9
S31508008930DDE90065617C002918BF1346D4E90012F9
S315080089405B1842F10002B342AA4104D22046FFF75F
S31508008950D3FFC4E9006502B070BD00BF842A0220B7
S3150800896038B500230022C0E90233002304460D4629
S31508008970C0E90023027C024827F010F9657438BD67
S3150800898018690120014891F03ABD00BFA8BC002033
S31508008990014891F036BD00BFA8BC0020044A08B5BE
S315080089A083680260243242600BB1B9F0FFFD08BD4E
S315080089B020360C08A0F10400F0E700BF10B5044605
S315080089C0054B03604033436013F082FE2046FFF7F1
S315080089D0E5FF204610BD00BFBCA20C08A0F10400AC
S315080089E0ECE700BF08B5094822F05EFF084826F004
S315080089F077FE50B90121064826F0DCF928B9054862
S31508008A0022F052FF024891F0F8FC08BDF0340C0839
S31508008A10A8BC00200E350C080B480C4B10B503609B
S31508008A2000230B4C0B492246C0E90133C36003748B
S31508008A3043610383B8F0F3FC2246BDE810400649BB
S31508008A400648B8F0ECBC00BFEC30012070200D08D9
S31508008A5050270220B9DF0208450D0808E028022041
S31508008A607FB505466B4822F01FFF29466A4822F063
S31508008A701BFF6A4E674822F017FF694822F014FF69
S31508008A8033784BB9304625F0CBFF041E0CBF0123C3
S31508008A900023337040F0BB8001F048F8064678F0B2
S31508008AA00AFC0446002840F0B280301D21F0CEFCB6
S31508008AB006F1080021F05EFC29465A4825F004F81C
S31508008AC0FFF790FF0446002840F0A180564891F031
S31508008AD012FA564CD4E8AF3FDA070BD4204698F082
S31508008AE0A5FD38B1524A53495348B8F098FC204678
S31508008AF098F0A1FD514CD4E8AF3FDB070FD42046D0
S31508008B0098F094FD58B14C494D4813F045FE484A33
S31508008B104C494B48B8F083FC204698F08CFD4A4DEA
S31508008B204A4C474B2846E36325F050FAE3686563E9
S31508008B301BB9474B474AE3605A60A36BF3B9464DE6
S31508008B40E6686B68002B41D105F1140078F020F92E
S31508008B5005F11C0078F01CF9EB6803B92B7295F83F
S31508008B6024303E4823F0050385F8243078F010F9C0
S31508008B7000236E602B7285F82430A563E36B0BB96E
S31508008B80374BE363374D384B2846E168236289F053
S31508008B904BFF236A28462B6189F07FF8B0B9E26853
S31508008BA0E5619AB1314B324D5A60236103F054FDA9
S31508008BB0304B02216062304A2120A3628FF01CFAF2
S31508008BC02846E16808F0F6FB00B9656100230393BF
S31508008BD02A4B2B4801932B4B029391F038FA01ABA1
S31508008BE0E362294B039019492848236015F0BEFC17
S31508008BF004460D4891F08DF94CB9254822F054FEEB
S31508008C00094825F0EFFE044608B900F097FB204610
S31508008C1004B070BD27350C085A350C08809F002013
S31508008C2066350C089C660120889F0020E4300120E8
S31508008C3050270220470D08089C280220E030012012
S31508008C4020120020BD890008EC300120A02802204F
S31508008C50742902208E140220A0520120AC52012051
S31508008C601863002034500120542902202C5001207A
S31508008C70F04F01205829022076350C08858900080E
S31508008C80A8BC0020918900089C2F0120B06600200E
S31508008C90A6350C0810B51648FFF7E2FE08B178F0BD
S31508008CA0EFF8144B1448D3F8FC128FF09DFE1248C7
S31508008CB021F0BCFB114891F01EF900F037FF00B116
S31508008CC00C301AF055F90D4891F023F90C4822F0AA
S31508008CD0EBFD0C485BF0B2FE08B178F0D1F80A4C0F
S31508008CE020683AF0A3FE08B1B9F060FC206010BD18
S31508008CF0CB350C08B0960020E0280220889F00207B
S31508008D00D9350C082CB90120E830012010B50F48D8
S31508008D1091F0D5FB00210E4A0E483AF033FE0E4C70
S31508008D2020600E4822F0C0FD23680BB9B9F03EFC5E
S31508008D30064891F0D3FB20F0E1F8094822F0B4FD8B
S31508008D40BDE81040AC2078F09BB800BF1869012038
S31508008D5058360C08958C0008E8300120EB350C08CD
S31508008D60FE350C0810B5044601210C20064A8FF082
S31508008D7043F90023E068A36020B1BDE8104003680A
S31508008D809B68184710BD00BF7C360C08A0F104008C
S31508008D90E8E700BF10B50A4CD4E8AF3FDB070DD4AF
S31508008DA0204698F043FC48B10648074B074A08494D
S31508008DB00360B8F034FB204698F03DFC014810BD2E
S31508008DC0083101200C3101202C070D0850270220FC
S31508008DD0B30D080810B504460B4B036064334360B3
S31508008DE000F50E702DF030FD636A23B1002204F100
S31508008DF01C0062629847236923B1002204F1080027
S31508008E0022619847204610BD50950C08A0F1040031
S31508008E10E0E700BF10B50446034B40F8343B77F053
S31508008E20DEFF204610BD00BF048F0C0837B5C068AA
S31508008E300D46144638B901210C200E4A8FF0DCF88D
S31508008E40002003B030BD1A682146019200221A603C
S31508008E5001AA0FF0D5FF01A877F0C1FFA38823B9AF
S31508008E60E38813B92378402BEAD02B8943F04003D3
S31508008E702B81E5E78F360C08A0F10400D6E700BF82
S31508008E80F0B505460C46152003211A4A85B08FF021
S31508008E90B3F8AF6817B9032005B0F0BD0023ADF8E5
S31508008EA008302389267B23B96389022B1ED1142E09
S31508008EB002D00123ADF8083060682CF0E5FE63683F
S31508008EC03246039302AB0093A168384603AB20F001
S31508008ED0E9FA044603A877F082FF2CB1A86818B10E
S31508008EE08FF0C0F90023AB602046D5E7002BE0D110
S31508008EF0402EDDE7C2360C0873B5164810F06CF93B
S31508008F001549164AD1F8FC32154E164D5360A1F58F
S31508008F10405133460F48009510F056FA124B33610C
S31508008F2025F004FB044602460A49304611F03AFB8E
S31508008F302946204625F08CF940B10C4822F0B4FCAD
S31508008F406D210B4B0B4A0C4873F03AFD6C6002B06E
S31508008F5070BD00BF50160020B096002008290220D8
S31508008F60E82802207015002080510100D3360C082D
S31508008F70EF360C0804370C0822370C0870B50024A5
S31508008F803248334B334E03606433436000F10803C1
S31508008F90C0E90233304BC0E90440836100F11C0389
S31508008FA0C0E907332D4BC0E90940C0E90B342C4B07
S31508008FB0C0E90D444364203383640523C0E9204493
S31508008FC0C0E92244C0E9644480F83C40046480F85F
S31508008FD0744080F89841C0F89C4180F8A04180F818
S31508008FE0B84180F8D04180F8E841C0F81C321D4BE2
S31508008FF032461D491D4DC0F83832C0E98F4480F805
S315080090000042C0F8184280F8204280F84442B8F07E
S3150800901006FA324616491748B8F001FA3246164992
S315080090201648B8F0FCF92846154B6C6040F8103B1A
S315080090302C7226F07BFEC5E93444C5E9364432462F
S315080090402846BDE870400F49B8F0E9B95016002027
S3150800905050950C08502702207DA10108D9920108D5
S31508009060A0370C08144C0D08D58D00087015002083
S31508009070C70D080808290220C90D0808E828022093
S31508009080048F0C08158E0008F0B59FB004463421ED
S31508009090684616F0CDF8BDF80220BDF800309A42B1
S315080090A02ED000273CF0B2FB02AD0523002215A9FD
S315080090B03CF01CFB082216992846B9F035FD2846CF
S315080090C08DF81070B9F0C1FD0126179BCDE90F5038
S315080090D02046CDE90C378DF83860B9F0B6FD8DF825
S315080090E04460CDE912408FF09EFC064B05A9059316
S315080090F00CAB06932CF0ACFC4FF480603CF01AF9EC
S315080091001FB0F0BD490E08082DE9F04F0446D0E916
S315080091100098D0E90276364A87B0936A012105930A
S315080091200369D2F82CB0D2F834A0956B0193436941
S31508009130304A029383690393C369002004938EF02F
S315080091405BFF01210020059B2B4A8EF055FF5B46ED
S3150800915001210020294A8EF04FFF534601210020A5
S31508009160274A8EF049FF2B4601210020254A8EF01A
S3150800917043FF2B4601210020224A8EF03DFF23465D
S3150800918001210020204A8EF037FF4B46012100209E
S315080091901E4A8EF031FF4346012100201C4A8EF0FC
S315080091A02BFF3B46012100201A4A8EF025FF334645
S315080091B001210020184A8EF01FFF01210020019B83
S315080091C0164A8EF019FF01210020029B144A8EF0E0
S315080091D013FF01210020039B124A8EF00DFF012187
S315080091E00020049B104A8EF007FF9AF0B4FCFEE7B5
S315080091F000ED00E0D8370C08E3370C08F7370C0801
S315080092000B380C081F380C0833380C0847380C087C
S315080092105B380C086F380C0883380C0897380C082C
S31508009220AB380C08BF380C08D3380C08012108B530
S31508009230074A084B00208EF0DFFE0648FFF724FF9A
S315080092409AF089FC0449054874F0A4F8FEE700BFC3
S315080092509E940D08E7380C080A390C0821390C08C1
S3150800926000240D4600B59BB06022214602A8019451
S31508009270B9F033FC2B466421094A01A874F09CF81E
S315080092800121084A01AB20468EF0B6FE01A8FFF779
S31508009290FBFE9AF060FC0449044874F07BF8FEE78C
S315080092A03A390C089E940D080A390C0821390C081D
S315080092B0034B0360034B0B604FF4A07313607047B6
S315080092C0C8460120C8410120034B0360034B0B60CD
S315080092D04FF480631360704710410120103101205C
S315080092E000240D4600B59BB06022214602A80194D1
S315080092F0B9F0F3FB2B466421074A01A874F05CF821
S3150800930001212046054A01AB8EF076FE01A8FFF73B
S31508009310BBFEB9F04BF900BF4D390C089E940D08F9
S3150800932001481EF09BBC00BF34540120024B0121AA
S3150800933018683AF0A1BB00BF8047012010B50D4858
S315080093401EF0EAFB044628B175210B4B0B4A0C4864
S3150800935073F036FB02F0EEF802F034F92146094ABA
S3150800936009483AF00FFB094B186008B9B9F01EF91D
S3150800937010BD00BF345401205D390C0869390C084A
S3150800938085390C08043A0C08219300088047012007
S315080093900021044600B589B01A2201A80091B9F047
S315080093A09CFB2346074A1E21684674F005F8694661
S315080093B0054822F079FA6846FFF766FE3BF076FE26
S315080093C0B9F0F4F8283A0C083E3A0C08024B012189
S315080093D018683AF051BB00BF544901200D4BD98893
S315080093E09A8889B292B2914211D0D9889A8889B25C
S315080093F092B291423DBF9A88D8881B89D8882DBFDA
S315080094009B8813FA80F0801AC01A80B27047002031
S31508009410704700BF3C480120F8B50E46074608B914
S31508009420B9F0C4F8154D2C898C42F9D3FFF7D6FF4D
S31508009430201A80B286421BD8EB88E888E41AA4B2C0
S31508009440A6422B6815D92246394613FA80F0B9F098
S31508009450EFFB2868321B3919B9F0EAFBEB8816FAD4
S3150800946083F12B89B1FBF3F203FB121189B2E98070
S31508009470F8BD3246394613FA80F0EDE73C4801203C
S3150800948000232DE9F0411A4EC2B01A4FADF8063145
S315080094904FF0FF330022306801A93AF06DFE04460A
S315080094A00028F5D1BDF8068195F047FA0121054651
S315080094B0084636F02DFE284695F043FA0E4B4246EE
S315080094C001A9386830F092FA4FF0FF3221460120A0
S315080094D03AF01CFB95F031FA05462146012036F094
S315080094E017FE284695F02DFA23462246D3E700BFF5
S315080094F09848012098280220CD9300082DE9F843C2
S31508009500DFF850801E46B8F800901546A3EB090709
S315080095100D4BFFB21C89FFF761FF241AA4B2A742BC
S3150800952007D8394605EB0900FFF776FF0023A8F8A8
S315080095300030064832462946054B006830F092F856
S31508009540BDE8F843FFF7F2BE3C4801209828022000
S31508009550FD940008ACC7012070B5214E3468002C74
S315080095603CD14FF482711F4A19203AF085FD1E4DF1
S315080095701E4A286021461E483AF004FA1D4B1E4A28
S315080095809C801A604FF4807230601A81DC8008B9BA
S31508009590B9F00CF82B68002BFAD0184C95F0C3F8E4
S315080095A08022174B1749206830F05CF88022144B4C
S315080095B01549206830F056F80B2035F0C7FF0B2008
S315080095C035F080FF0423114A0521D364A2F58052A1
S315080095D013650F48BDE8704095F011BC70BD00BF1B
S315080095E0544901205C3A0C08984801207C3A0C083A
S315080095F0819400083C48012007E3012098280220AE
S31508009600FD940008EB0102206B0102200020015B9B
S315080096100000015B08B5FFF789FE0422014BDA64F6
S3150800962008BD00BF0020015B70B50C460546C2B0F8
S3150800963018B94FF0FF3042B070BD4B1EB3F5817FAD
S31508009640F7D20B4E33680BB9FFF786FF2246294639
S3150800965001A8B9F0EDFA00231822306801A9ADF87F
S3150800966006413AF04FFD0028E3D120B2E3E700BFF8
S3150800967098480120F0B50C46074685B0002850D01A
S3150800968000294ED0FFF7AAFEA04219D295F05CF940
S3150800969005462548254E03AB01A9006802AA95F0A0
S315080096A009FB338802998B4207D20198C91A1844D4
S315080096B089B2FFF7B1FE029B3380284695F04AF936
S315080096C01B4D2E89B44201D9B8F070FFFFF786FE0C
S315080096D0844202D3FFF782FE0446AB88A988F61AAD
S315080096E0B6B2A6422B6817D2324613FA81F138462B
S315080096F0B9F09EFA2968A21BB819B9F099FAAB888D
S315080097002A8914FA83F3B3FBF2F102FB11339BB2F5
S31508009710AB8020B205B0F0BD2246384613FA81F177
S31508009720EBE74FF0FF30F5E798280220ACC7012099
S315080097303C48012010B58CB0044677F0C3FB0021E5
S31508009740102208A8B9F0C9F901230E4A02A8CDE9E2
S3150800975003230D4B059407934FF47053029377F048
S31508009760A4FB029B069395F0F5FF0023000240F048
S315080097700100049001A903A801939DF0F4FD0CB023
S3150800978010BD00BF127100010906000670B58CB045
S315080097900C461546064677F095FB0021102208A8C8
S315080097A0B9F09BF90123114A02A8CDE90323104B0E
S315080097B0059607934FF47053029377F076FB029B56
S315080097C0069395F0C7FF0023000240F001002146EA
S315080097D02A460490019303A801AB9CF065FF044652
S315080097E003A89DF01BFF20460CB070BD1271000146
S315080097F00906000610B50A4B86B0144602930023E4
S31508009800059103901A46CDE90033214405A89AF03C
S315080098105EFA002814BFAC20002006B010BD00BFB9
S31508009820E70E08082DE9F041BEB0449D98462B681E
S3150800983004460E461746002B57D06B68B3F5007FD3
S3150800984053D302A89EF0F8FA00213C2207A80691F5
S31508009850B9F043F9D8F804308BB1CDE90067402157
S31508009860D8F80030224A06A873F0A6FD06A902A871
S315080098709EF0F9FA58B1AC203EB0BDE8F081334607
S3150800988040211C4A009706A873F096FDEEE70921C9
S3150800989002A89EF0E4FA2068FFF74CFF16A89CF091
S315080098A0E0F8216816A83EF029FA04460028E2D115
S315080098B016A902A89EF0D5FA00942346D5E9001207
S315080098C002A841F0A3FD04460028D4D12868B9F0BF
S315080098D0BCF96B680130984201D9B8F067FE686038
S315080098E002A89EF0ADFA2046C6E72F20C4E700BFBF
S315080098F0A03A0C08BA3A0C08F0B50C46002197B005
S315080099000646154607A83C220691B9F0E6F8402314
S3150800991005AACDE9013206AF009705930E49D4E9A9
S31508009920002330689DF0ECFA044698B9059E6B68EA
S315080099309E420DD8324639462868B9F079F96B68DF
S315080099409E4201D9B8F032FE20466E6017B0F0BDCF
S315080099501920FBE7AC20F9E709060006F7B5104C15
S315080099601F4623680D4616469BB1009202211D200C
S315080099700C4A8EF041FB75B12268B2420DD82846D2
S315080099800949B9F055F9002023683B60206003B007
S31508009990F0BDAE20FBE72F20F9E71920F7E700BF57
S315080099A058490120DF3A0C086B02022038B50D46EB
S315080099B01446134602211D20054A8EF01DFB2B4630
S315080099C022460021192063F013F9002038BD00BF94
S315080099D0FB3A0C0807B5054B802200930021044B7F
S315080099E063F0D4F8002003B05DF804FB6B02022094
S315080099F05849012038B504460D46204677F082FAC4
S31508009A002B7C002857D0052B59D0032B17D0042BB5
S31508009A1038D0012B4DD102222146284677F030FB5B
S31508009A20002833D12946284677F06EFB70BB95F897
S31508009A302430002B0CBF032305232B74DDE795F890
S31508009A4025209AB1214628462A7F77F019FBE8B9DE
S31508009A502946284677F099FBC0B995F8253073B999
S31508009A600223AA691A442A620423E6E72B7D013BEE
S31508009A70DBB2022B9CBF134AD25CAA61F0E72B7FAC
S31508009A800233EEE795F824300BB1232038BDAA69D6
S31508009A900AB91820FAE72146284677F0F1FA00288D
S31508009AA0F4D12946284677F098FB0028EED10523FD
S31508009AB0C3E70320EAE7052B01D00D20E6E70020DF
S31508009AC0E4E700BF143B0C082DE9F04100240546E5
S31508009AD0A046144F86B000F1AC06304601ABC4F17F
S31508009AE080023919CDF80480FFF738FFB8B18CB178
S31508009AF00D4B04AA0493802302A92846CDE90274D3
S31508009B00059377F0F4FBDDE9041285F8B8003046D2
S31508009B10FFF74CFF95F8B80006B0BDE8F081019B49
S31508009B201C44DAE76B030220EB0202200048704768
S31508009B305C4901200021154B10B5154C03F198021C
S31508009B40626003F1E0022360A26003F58673802257
S31508009B5004F12800C4E90411C4E90611C4E908118E
S31508009B60E360B8F0BAFF0B4BC4F8B440C4F8A830A9
S31508009B70094B2046C4F8B030012384F8B830074AA8
S31508009B800749BDE81040B7F04ABC00BFA03C0C0826
S31508009B905C490120E03D0C08203B0C0850270220B8
S31508009BA0B5120808F0B5CB780C461546806885B01E
S31508009BB003B9A830A378032B5AD8DFE803F041028B
S31508009BC01A2E00268DF80C6003682188DB6803AA24
S31508009BD09847D82802D050B105B0F0BD31462A467C
S31508009BE0208877F018FB0028F6D10020F4E703A9AF
S31508009BF0F5E70026ADF80C60036821885B6903AABF
S31508009C009847D82803D00028E6D103A900E03146B2
S31508009C102A46208877F012FBE5E7002603960368B4
S31508009C202188DB6903AA9847D82803D00028D3D10E
S31508009C3003A900E031462A46208877F013FBD2E7CD
S31508009C4000260396036803AA00929F6A094A4FF4FE
S31508009C5000732188B847D82803D00028BCD1054905
S31508009C6000E031462B46039A208877F00FFBBAE7C7
S31508009C702620B1E7F70702202DE9F74305460846EF
S31508009C800C4677F04CF90746002845D0264877F069
S31508009C9039F9254E58B187423A46314628BF024619
S31508009CA0204677F0D1F910B103B0BDE8F083DFF8AC
S31508009CB07C801D4F28E03368013AC6E90233D8F89C
S31508009CC00031C8F8042158F82310013303F03F0384
S31508009CD0C8F800312B6801913A462846DB6901A984
S31508009CE098470028E0D1204677F019F9814638468A
S31508009CF077F008F981454A46394628BF0246204684
S31508009D0077F0A2F90028CFD1204677F008F918B1E4
S31508009D10D8F80421002ACED128462B68DB6803B080
S31508009D20BDE8F043184700BF204B0120184A012020
S31508009D3070B504460D460E4E284677F0E3F828B966
S31508009D4023682046BDE870409B6818473146284678
S31508009D50FFF750FE0D28EFD048B9236820469B69C7
S31508009D600349984718B9024877F037FBE4E770BD0E
S31508009D70504B012038B50C4694F827300546498AD9
S31508009D8023B1227D0F4877F037FBD0B96FF4807284
S31508009D90638A1344032B13D8DFE803F00206040989
S31508009DA0E36AEB6000200CE0E36A2B61FAE794F8BB
S31508009DB0243083F001032B7603B1E36A6B61F1E784
S31508009DC0A62038BD184A012008B503480A7D498AE5
S31508009DD077F012FB08BD00BF184A012070B591F84C
S31508009DE026300C46856803B9A83594F82730227DB5
S31508009DF023B1618A174877F0FFFA50BB237D032BFE
S31508009E0026D8DFE803F016020E112B689B6894F833
S31508009E102420618A5AB904F12C022846BDE870400C
S31508009E2018472B681B69F2E72B689B69EFE7002246
S31508009E30F3E72B68618ADE6A94F8243033B9E26A5C
S31508009E402846B446A369BDE8704060470022F7E794
S31508009E50262070BD184A012010B50A46498AB1F570
S31508009E60A27F16D008D840F20513994218D0B1F54A
S31508009E70A17F0ED0A62017E040F2A1139942F9D18E
S31508009E8080680368DC6A9369A446BDE81040D26A14
S31508009E90604780682C320368BDE810401B69184784
S31508009EA0127D024877F0A8FA10BD00BF184A0120B3
S31508009EB02DE9F04100254B6892B0052B07468846E8
S31508009EC016468DF805508DF806508DF8075040F265
S31508009ED0B6800A68023B13440DF1050102A8CDE9D4
S31508009EE003330292059277F0E9F80446002840F019
S31508009EF0A2800DF1060102A877F0E0F804460028D2
S31508009F0040F099800DF1070102A877F0D7F80446CA
S31508009F10002840F09080D8F804203368802A00F2A0
S31508009F20898072687F2A40F2888003F108027E33AE
S31508009F30CDE907329DF806300692013B0992042BBB
S31508009F4076D8DFE803F03703676E5F000020089ACB
S31508009F50069B9A4288BFD41AE5B2044600213368A4
S31508009F600BA803F10802CDE907231C2206930993DF
S31508009F700A91B8F0B2FD022106A876F0DDFF9DF839
S31508009F80061006A841F0800176F0D6FF9DF8071066
S31508009F9006A876F0D1FF214606A876F0F2FF2946F4
S31508009FA006A876F0C9FF726805F10A03934248D9F4
S31508009FB0B8F0FCFA012200257B682B480C932B4B42
S31508009FC08DF82C200A932A4BCDE90D5503F501721D
S31508009FD0C0E901230360C3600F958DF8405077F000
S31508009FE0FCF9244A244B02F50271C3E901121A60EE
S31508009FF0DA60224BC3F8045106AA02A90AA877F028
S3150800A00020FAA4E701227B688DF82C200C931C4BC0
S3150800A0100A93F1E703227B688DF82C200C93194BE1
S3150800A020F6E704227B688DF82C200C93164BEFE795
S3150800A0302A208CE7C224002590E71924FBE7192477
S3150800A0408CE7083573600AAA2946306823F092FC23
S3150800A0509DF80600BDF82820023818BF012033688D
S3150800A0605A5312B0BDE8F081504B0120343B0C081E
S3150800A070F3050220EB030220204B0120184A012099
S3150800A0805C3B0C08843B0C08AC3B0C0838B5002438
S3150800A0900125144B144803F50172C0E90123036036
S3150800A0A0C360C0E908440574448204758461047772
S3150800A0B0846277F092F90D4B0D4803F50272C0E9F8
S3150800A0C001230360C360C0E908440574448204752B
S3150800A0D084610477846277F080F9064BC3E94044CB
S3150800A0E038BD00BFF3050220504B0120EB030220C8
S3150800A0F0204B0120184A012010B440F26314A142F3
S3150800A100034612D0B1F5B27F07D2B1F5827F20D0CF
S3150800A110B1F5B17F18D0A62009E040F29710814228
S3150800A120F9D102B112685A6211E01AB92F205DF806
S3150800A130044B704711680A4BA1F57A729A42F5D812
S3150800A1405DF8044B00F07ABE02B112681A6200206C
S3150800A150EDE7002AEAD011685DF8044B00F066BF07
S3150800A160B88201002DE9F041002486B088461746DA
S3150800A1701E460B2201AB03A9CDE90344CDE90144F0
S3150800A180CDF8134000F01AFE044650B140F2012300
S3150800A19098422DD001211F20174A03AB8DF02CFFC2
S3150800A1A026E0019D0A2D01D02F24F3E72A4602A9AD
S3150800A1B003A872F0F5FC029A04AB9A42A8F80000CC
S3150800A1C0F2D12A4602A90DF1110072F0E9FC029AB1
S3150800A1D00DF113039A423870E6D12A4602A905A85A
S3150800A1E072F0DEFC029A0DF116039A423070DBD14A
S3150800A1F0204606B0BDE8F081CC3B0C080023F0B53C
S3150800A20087B001930C46D1E9001201AB00F0E2FDDC
S3150800A21040F20123984225D102AD2A46144B03F198
S3150800A22010072E4618685968083303C6BB423546D8
S3150800A230F7D163680F2B02D8192007B0F0BD25683F
S3150800A24006AE134603CBB342286069601A4605F189
S3150800A2500805F6D110230193019B6268934204D93D
S3150800A260B8F0A4F90028E8D1F6E700206360E4E72F
S3150800A270C83D0C08F0B5B1F5AA7F97B01546064655
S3150800A2801A461C9C3CD8B1F5A07F09D840F20513A4
S3150800A290994266D040F2111399425BD0A6205EE03F
S3150800A2A06FF4A07319441329F8D801A353F821F0C1
S3150800A2B09DA300089DA20008B7A300089DA2000858
S3150800A2C0BDA30008C3A30008C9A30008CFA30008BC
S3150800A2D09DA200089DA200089DA200089DA2000854
S3150800A2E09DA200089DA200089DA200089DA2000844
S3150800A2F09DA20008D5A30008DBA30008E5A3000873
S3150800A300B1F5C17F00F08B800ED840F265139942F3
S3150800A3107BD0B1F5B37F7DD0B1F5B27FBED12346F0
S3150800A320294600F0A7FD19E040F29313994200F080
S3150800A330848040F295139942B0D1CDE90D5205B902
S3150800A340EAB933683046D3F880300DA9984730B952
S3150800A3500E9B21E02346294600F07AFE48B317B043
S3150800A360F0BD00F1280738460392B8F06EFC039A50
S3150800A3700130CDE906050597089215B90AB1B8F076
S3150800A38015F907AB00933046728A318A05AB00F09F
S3150800A39007FE0028E3D1089B23600AE003681B6BCD
S3150800A3A02946304698470028D9D12846B8F04DFCAA
S3150800A3B020600020D3E703689B6BF1E703681B6CFA
S3150800A3C0EEE703685B6CEBE703689B6CE8E70368FA
S3150800A3D0DB6CE5E703685B6DE2E72346294600F098
S3150800A3E0EDFCBBE721230DAF0C9303680B97039293
S3150800A3F0DB6D0BA99847039A0028B0D11346202194
S3150800A4002A4638468DF007FCD2E72346294600F04F
S3150800A4103DFDA3E72346294600F026FE9EE7CDE943
S3150800A42009530DB9002BAAD1336830469B6F09A989
S3150800A4309847002893D10A9BAEE7CDE90B520DB990
S3150800A440002A9CD133683046DB6F0BA99847002851
S3150800A45085D10C9BA0E700BFF0B54B680646602B7C
S3150800A4600C461546A5B029D900278222394603A8E5
S3150800A4700297B8F032FB01AB8622304602A9019753
S3150800A48000F004FD40F20123984210D184220C49C1
S3150800A49002A80192B8F0CCFB2268019902A81EF026
S3150800A4A013FD28606368984205D9B8F07FF800283C
S3150800A4B0F2D025B0F0BD60600020FAE71920F8E771
S3150800A4C0EB3B0C0870B50026044696B02A220D46CA
S3150800A4D00BA831460A96B8F000FB01AB2E2220469F
S3150800A4E00AA9019600F0C6FC40F20123984227D13A
S3150800A4F018230193174B0AAC03F11806224618686D
S3150800A5005968083303C2B3421446F7D100241C2203
S3150800A510214603A80294B8F0E0FA019902AA0AA80B
S3150800A5201EF0D2FC6B680646984210D8024602A96D
S3150800A5302868B8F07DFB6B689E4205D9B8F036F8F6
S3150800A5400028E3D016B070BD20466E60FAE71920E1
S3150800A550F8E700BF703C0C08F0B500264B6895B0CC
S3150800A560032B05460C46019602D8192015B0F0BDF6
S3150800A5700CAF01AB2022394600F076FD40F20123EC
S3150800A580984254D14FF08073059302238DF8183002
S3150800A590384B284607932B688DF810601B6EADF86C
S3150800A5A01260ADF81A60ADF802600DF10201984725
S3150800A5B00028DBD1BDF80220B2F5805F01D3B7F0E1
S3150800A5C0F5FFBDF81A30C2F30B0223F4FF5323F04C
S3150800A5D01F031343ADF81A302B6828465B6B0DF141
S3150800A5E0120198470028C1D12B682846DB6B05A9BC
S3150800A5F098470028BAD19DF81030BDF812208DF87A
S3150800A6002030ADF822209DF81730059A09921BB123
S3150800A6109DF818308DF82830BDF81A302146ADF867
S3150800A6202A30079B08A80B9392F09EF89EE700280D
S3150800A6309CD1019B0BB9D82098E70F4A236811884B
S3150800A640927819809A7062680333033ACDE9023228
S3150800A650019B3846194602AA089709932AF0E4FF8F
S3150800A660002883D1039B626803339342A7D86360AB
S3150800A6707CE700BF25423401893C0C0870B5B1F56A
S3150800A680AA7F044616461D4692B039D8B1F5A07F72
S3150800A69006D840F21113994200F08480A620E9E01A
S3150800A6A06FF4A07319441329F8D801A353F821F0BD
S3150800A6B0B3A700089DA60008CDA700089DA6000818
S3150800A6C0E7A7000801A800081BA8000835A8000885
S3150800A6D09DA600089DA600089DA600089DA6000840
S3150800A6E09DA600089DA600089DA600089DA6000830
S3150800A6F09DA600084FA8000887A80008A1A800087A
S3150800A700B1F5C17F00F0218126D8B1F5B37F00F0FD
S3150800A710F6800ED8B1F5B27F00F0E68040F26513F8
S3150800A7209942BBD12A46314612B0BDE8704000F0C6
S3150800A730A7BB40F281139942B0D112B1002D40F067
S3150800A740FE80002305AACDE909238DF8143020469A
S3150800A75009A977F033F88DE0B1F5CB7F00F00981D0
S3150800A76012D840F29313994200F0F98040F29513FB
S3150800A770994293D131462A4609A876F0BFFF20466A
S3150800A78009A900F0D5FB75E040F2A113994285D1DD
S3150800A790002A40F0F880802231462830B8F09DF92A
S3150800A7A0002067E02A46314612B0BDE8704000F046
S3150800A7B049BC02B13DB900227949204612B0BDE82C
S3150800A7C0704000F0F9B92A463146F6E702B13DB9BC
S3150800A7D000227349204612B0BDE8704000F014BA52
S3150800A7E02A463146F6E702B13DB900226C492046B1
S3150800A7F012B0BDE8704000F043BA2A463146F6E783
S3150800A80002B13DB900226649204612B0BDE8704043
S3150800A81000F05CBA2A463146F6E702B13DB9002295
S3150800A8205F49204612B0BDE8704000F061BA2A467A
S3150800A8303146F6E702B13DB900225949204612B021
S3150800A840BDE8704000F066BA2A463146F6E702B11E
S3150800A85095B900211C220AA80991B8F03EF92021D1
S3150800A860504AA38A09A872F0A7FD09A902462046FC
S3150800A87000F078FA12B070BD2A46314612B0BDE82B
S3150800A880704000F06FBA02B13DB90A224649204627
S3150800A89012B0BDE8704000F08BBA2A463146F6E79A
S3150800A8A002B1B5B9102105A88EF01AFF02231021AE
S3150800A8B00093212309AA05A88DF051F90028D9D1BA
S3150800A8C009A8B8F0C2F909A90246204600F07CFAA0
S3150800A8D0D0E7102D01D92F20CCE702232946009373
S3150800A8E03046212309AAE7E7002AF4D0002BF2D044
S3150800A8F01A46314612B0BDE8704000F0B5BA02B14A
S3150800A900B3B90023CDE90933CDF82B30236A09A85A
S3150800A9100293E38A0193E3690093628A218AA36911
S3150800A92076F0A7FE0B22204609A900F097FBA1E7BF
S3150800A9301A46314612B0BDE8704000F08FBB2A4671
S3150800A940314609A876F0DAFE01E731461A4609A823
S3150800A95076F0D4FE204609A900F09EFA8AE7314629
S3150800A9602A4609A876F0CAFE204609A900F0BAFACE
S3150800A97080E731461A4609A876F0C0FE204609A99E
S3150800A98000F0FCFA76E77F2DA5D82A46314628300E
S3150800A990B8F04EF900232C4484F8283000E700BFAD
S3150800A9A038830D08111B0D088D3C0C08012903BFBF
S3150800A9B0034B00201B78A62008BF1370704700BF02
S3150800A9C0170A0220022938B514461D460FD120223F
S3150800A9D000210848B8F081F83CB1202D2A462146C6
S3150800A9E028BF20220348B8F023F9002038BDA62046
S3150800A9F0FCE700BFF7090220104608B56AB163B143
S3150800AA0002290CD1202B28BF20231A46029B054970
S3150800AA101A60B8F00DF9002008BD2F20FCE7A62023
S3150800AA20FAE700BFF7090220012905D102B1127819
S3150800AA30024B00201A707047A6207047170A02209A
S3150800AA400023F0B585B007460E46234803A91546E8
S3150800AA50039321F02BF900283CD1204C236813B925
S3150800AA600398B8F0C9F9D5E900121D4B1846B8F095
S3150800AA70DFF803466868B0F5007F05D2C0F50072B6
S3150800AA80FF211844B8F029F86B680221019323685E
S3150800AA901F20144A0093039B8DF0AEFA236803988F
S3150800AAA00F494FF400721844B8F0AAF938462168DD
S3150800AAB021F050FA70B93046696821F04BFA48B966
S3150800AAC0002022686B68134413F03F021CBF403312
S3150800AAD09B1A236005B0F0BD21720800804B012047
S3150800AAE0F7070220103E0C082DE9F0431D46002307
S3150800AAF089B0074608460E461446CDE9053320F0C8
S3150800AB00E1FF18B9D82009B0BDE8F083304605A999
S3150800AB1021F0CCF80028F6D1204620F0D3FF0028F3
S3150800AB20F0D0204606A921F0C1F80028EBD1DDE9CE
S3150800AB300586079007A9124821F0B8F80446D8B93F
S3150800AB40079B18EB030902D10EB1B7F02FFD00934E
S3150800AB5002213B461F20CDE901860A4A8DF04CFAB0
S3150800AB606B689E420AD8324649462868B8F060F8AB
S3150800AB706B689E42E9D86E602046C4E71924FBE755
S3150800AB8021720800353E0C080020084B10B51860E5
S3150800AB9032B9074C2146BDE81040064821F0DAB91B
S3150800ABA0A1F500518C1830F06BFDF3E7804B0120BE
S3150800ABB000E0170821720800014821F0FBB900BF20
S3150800ABC000720800002307B50348019301AB21F082
S3150800ABD0B9F803B05DF804FB00720800014821F0DB
S3150800ABE0A1B900BF0C72080010B506480C4621F042
S3150800ABF035F840F20123984202BF4FF6F1732380DD
S3150800AC00002010BD0C720800014821F0D3B900BF1E
S3150800AC100D72080073B5002601AB0C480C461546A4
S3150800AC20019621F08FF840F20123984208D14CB1E1
S3150800AC30062D09D920462946054A76F073FD304681
S3150800AC4002B070BD0B20FBE71920F9E70D7208006A
S3150800AC50533E0C08014821F065B900BF0B72080085
S3150800AC6010B506480C4620F0F9FF40F20123984239
S3150800AC7002BF48F205032380002010BD0B720800AE
S3150800AC80014821F097B900BF0E72080073B5002677
S3150800AC9001AB0C480C461546019621F053F840F2D4
S3150800ACA00123984208D14CB1062D09D920462946D8
S3150800ACB0054A76F037FD304602B070BD0B20FBE73B
S3150800ACC01920F9E70E7208005A3E0C08014821F0CF
S3150800ACD071B900BF10720800002307B50348019335
S3150800ACE001AB21F02FF803B05DF804FB10720800E1
S3150800ACF0014821F05FB900BF11720800002307B5AB
S3150800AD000348019301AB21F01DF803B05DF804FB7D
S3150800AD1011720800014821F04DB900BF12720800EF
S3150800AD20002307B50348019301AB21F00BF803B0E4
S3150800AD305DF804FB12720800014821F0F3B800BF61
S3150800AD400873080010B506480C4620F087FF40F245
S3150800AD500123984202BF01232380002010BD00BFB3
S3150800AD6008730800014821F025B900BF0F720800D2
S3150800AD7073B5002601AB0C480C461546019620F023
S3150800AD80E1FF40F20123984208D14CB10C2D09D9B4
S3150800AD9020462946054A76F0C5FC304602B070BD05
S3150800ADA00B20FBE71920F9E70F720800643E0C0830
S3150800ADB0014821F0FFB800BF04720800014820F0DE
S3150800ADC0C1BF00BF04720800014821F00DB900BFD9
S3150800ADD01F720800014821F00BB800BF1F72080057
S3150800ADE0014821F09FB800BF0772080013B5104844
S3150800ADF00C4620F033FF40F201229042034604D16C
S3150800AE004FF47063238000230FE070B92388B3F5ED
S3150800AE10805FF8D34FF4B8732F240121CDE90034AD
S3150800AE20044A054B8DF0E8F82346184602B010BDD3
S3150800AE3007720800913E0C08713E0C08014821F083
S3150800AE4089B800BF0872080010B506480C4620F0FD
S3150800AE502DFF40F20123984202BF4FF47A73236014
S3150800AE60002010BD08720800014821F0A3B800BFF1
S3150800AE7009720800014820F065BF00BF0972080082
S3150800AE80014821F097B800BF0A720800014820F06F
S3150800AE9059BF00BF0A72080008B50A4602480349A6
S3150800AEA0FFF7CEFD08BD00BF26720800277208000E
S3150800AEB00B4610B5084A0C4608480949FFF714FE20
S3150800AEC0D82807D11AF040FB03682146BDE8104090
S3150800AED09B68184710BD00BF27720800A23E0C08E1
S3150800AEE02672080008B50A4602480349FFF7A8FD76
S3150800AEF008BD00BF24720800257208000B4610B56D
S3150800AF00084A0C4608480949FFF7EEFDD82807D134
S3150800AF101AF01AFB03682146BDE810405B6918471A
S3150800AF2010BD00BF25720800BE3E0C08247208003A
S3150800AF3008B50A4602480349FFF782FD08BD00BF67
S3150800AF4022720800237208000B4610B5084A0C4600
S3150800AF5008480949FFF7C8FDD82807D11AF0F4FAB6
S3150800AF6003682146BDE810401B69184710BD00BF9D
S3150800AF7023720800E43E0C0822720800022307B573
S3150800AF8001A8D1E900120193FEF734FC18B901991A
S3150800AF90024820F0DFFF03B05DF804FB20720800CA
S3150800AFA01FB5022003900698009003A8FEF73AFC06
S3150800AFB018B90399024820F0CDFF05B05DF804FBE7
S3150800AFC020720800002370B5164886B00D4616464E
S3150800AFD0049320F077FDE8B1124804A920F066FE34
S3150800AFE0B0B9049B3246002B08BF0223294605A8A0
S3150800AFF00593FEF781FC0446029073681F200193AF
S3150800B0006B6802210093084A049B8CF0F5FF2046E2
S3150800B01006B070BD1AF098FA0368324629469B694D
S3150800B0209847E8E720720800FD3E0C08014820F022
S3150800B03091BF00BF21720800014820F037BE00BF4B
S3150800B04021720800014820F0B5BF00BF2972080028
S3150800B050014820F077BE00BF29720800014820F099
S3150800B060C3BF00BF05720800014820F0C1BE00BF7B
S3150800B07005720800014820F03DBF00BF287208008D
S3150800B080014820F0C3BD00BF2872080008B5114961
S3150800B09011488DF0F9FF114911488DF0F5FF114956
S3150800B0A011488DF0F1FF114911488DF0EDFF114956
S3150800B0B011488DF0E9FF114911488DF0E5FF114956
S3150800B0C011488DF0E1FFBDE80840104910488DF0A1
S3150800B0D0DBBF00BF20720800217308002172080038
S3150800B0E022730800227208002373080023720800DE
S3150800B0F024730800247208002573080025720800C6
S3150800B10026730800267208002773080027720800AD
S3150800B1102873080010B530200C461FF0F9FD20B141
S3150800B120024B848003600023836010BD38400C08FE
S3150800B13010B52C201FF0ECFD044628B12C22002166
S3150800B140B7F0CBFC014B2360204610BD70400C08BD
S3150800B15008B508201FF0DCFD18B100234360014B39
S3150800B160036008BD8C400C08F8B543680446072BF5
S3150800B1700D461FD8013B062B96BF0F4A0F4F52F8B4
S3150800B18023703846B7F061FD232813D804F1080662
S3150800B190242239463046B7F0C7FC0023304684F8E7
S3150800B1A02B30B7F052FDC5E9006001206368013312
S3150800B1B06360F8BD0020FCE7F43F0C08483F0C0824
S3150800B1C0042370B5144645688AB0ADF802302B687A
S3150800B1D00A4601A805499E6876F087FB2246284656
S3150800B1E00DF1020301A9B0470AB070BD4E3F0C0825
S3150800B1F030B54468134622688BB0156901A80A461B
S3150800B200034976F072FB204601A9A8470BB030BD6A
S3150800B2105B3F0C0830B58DB04468019223680A4636
S3150800B22003A80649DD6876F060FB042320460DEB8B
S3150800B230030203A9A8470DB030BD00BF4E3F0C0856
S3150800B240F0B5A3B0064617A81F460C4615468BF060
S3150800B25092FA2A2217A80CA98BF0A0FA0DF10B0373
S3150800B260019315234FF48072009317A800238BF0DF
S3150800B270C4FC50BB97E80300154B8DE80300D3E9DF
S3150800B280002317A88BF091FDF8B9D7E90201114BF5
S3150800B2908DE80300D3E9002317A88BF086FDA0B933
S3150800B2A09DF90B1017A88BF0DDFC70B9766822465D
S3150800B2B033680949DF6803A82B4676F016FB304643
S3150800B2C0BDF874300CAA03A9B84723B0F0BD00BF77
S3150800B2D0D8400C08D0400C085B3F0C0813B5044650
S3150800B2E008460A4B1146C4E900300023C4E9033373
S3150800B2F00193036822815B6A01AA984710B9019BEA
S3150800B300C4E90303204602B010BD00BF54400C0830
S3150800B3102DE9F34183680446032B0D4603D9002023
S3150800B32002B0BDE8F0818288022100921F20184AE7
S3150800B3308CF062FEA368032BF1D8164A52F82360F4
S3150800B340154A304652F82380B7F07FFC1028E6D815
S3150800B3504046B7F07AFC1028E1D804F10C073146CC
S3150800B360384604F11D0676F0E6FA4146304676F090
S3150800B370E2FA3846B7F069FCC5E900703046B7F01E
S3150800B38064FCC5E90260A36801200133A360C7E72E
S3150800B3906C3F0C0820400C0810400C082DE9F041C1
S3150800B3A0D0E90332934204460D469EB003D30020EB
S3150800B3B01EB0BDE8F0812A2642683B495768ADF8B9
S3150800B3C002603A68D2F80880028910A876F08DFAE9
S3150800B3D038460DF1020305AA10A9C0470028E6D190
S3150800B3E010A88AF00EFD324605A910A88AF04CFD71
S3150800B3F04FF480720023152110A88BF05DF8002801
S3150800B400D5D10DF1010110A88AF04CFF0028CED144
S3150800B410264BCDE90100D3E90023CDE9030010A8A6
S3150800B4208BF03DF80028C2D101AE314610A88BF04A
S3150800B430B2F80028BBD11E4B10A8D3E900238BF025
S3150800B4402EF80028B3D10DF10C08414610A88BF050
S3150800B450A2F80028ABD110A88BF016F80028A6D1C0
S3150800B4609DF9011010A88AF0BAFF00289FD196E826
S3150800B470060004F1140704F12506384676F063FA47
S3150800B48098E80600304676F05EFA3846B7F0DDFBF7
S3150800B490C5E900703046B7F0D8FBC5E90260E36835
S3150800B4A001200133E36083E75B3F0C08D8400C08B2
S3150800B4B0D0400C08F8B505460E460024094FAC42A4
S3150800B4C006DB1CF067FC08498CF0E4F80020F8BDA0
S3150800B4D01CF060FC56F8242039468CF0DBF8013461
S3150800B4E0EDE700BFE0400C08E6400C08F8B5054655
S3150800B4F00E460024064FAC4201DB0020F8BD56F884
